:100000000C9435000C9459020C9486020C945D00FB
:100010000C945D000C945D000C945D000C945D00EC
:100020000C945D000C945D000C945D000C945D00DC
:100030000C945D000C945D000C945D000C945D00CC
:100040000C94B3020C945D000C9488000C945D0039
:100050000C945D000C945D000C945D000C945D00AC
:100060000C945D000C945D00410111241FBECFEF84
:10007000D8E0DEBFCDBF11E0A0E0B1E0ECE3F8E0F6
:1000800002C005900D92A630B107D9F711E0A6E0A5
:10009000B1E001C01D92AC3AB107E1F710E0CAE649
:1000A000D0E004C02297FE010E941804C836D10790
:1000B000C9F70E9476000C941C040C9400006AE0BE
:1000C00070E080E090E00E944E0308958AE891E09D
:1000D00040E855E260E070E00E94C50081E06DE715
:1000E00070E043E050E00E94360208950E947803D9
:1000F0000E9466000E945F00FDCFF8940E942303D7
:10010000AB01BC018AE891E00E942B02789408952B
:100110001F920F920FB60F9211242F933F934F937C
:100120005F936F937F938F939F93AF93BF93EF935F
:10013000FF934091C600E0918601F0918701CF01C5
:10014000019660E870E00E94B2039C0180918801F2
:10015000909189012817390739F0EA5FFE4F4083F3
:100160003093870120938601FF91EF91BF91AF916A
:100170009F918F917F916F915F914F913F912F91BF
:100180000F900FBE0F901F901895AF92BF92CF9215
:10019000DF92EF92FF920F931F93CF93DF936C0147
:1001A0007A018B01DC011496AD90BC901597CB01C0
:1001B000BA0122E030E040E050E00E94E703205C1A
:1001C0003D4B404F5F4FCA01B901A80197010E9402
:1001D000E703C901DA010197A109B109292F3A2FD3
:1001E0004B2F552747FD5A950196A11DB11DE501DD
:1001F0002883E601EE81FF8181508083EA85FB85BB
:10020000208141E050E0CA010E8402C0880F991F8E
:100210000A94E2F7282B2083EA85FB852081CA0116
:100220000F8402C0880F991F0A94E2F7282B2083BD
:10023000EA85FB858081088802C0440F551F0A9417
:10024000E2F7842B8083DF91CF911F910F91FF9074
:10025000EF90DF90CF90BF90AF900895FC01A08504
:10026000B18521898C9190E0022E02C095958795E9
:100270000A94E2F780FFF6CF0484F585E02D6083D1
:10028000089584E091E090938B0180938A0186E049
:1002900091E090938D0180938C0185EC90E0909398
:1002A0008F0180938E0184EC90E090939101809374
:1002B000900180EC90E0909393018093920181EC07
:1002C00090E0909395018093940186EC90E0909358
:1002D00097018093960184E08093980183E0809356
:1002E000990187E080939A0185E080939B010895AE
:1002F0000F931F938C01DC01ED91FC910190F08133
:10030000E02D6DE00995D801ED91FC910190F0810F
:10031000E02DC8016AE009951F910F9108952F9271
:100320003F924F925F926F927F928F929F92AF9285
:10033000BF92CF92DF92EF92FF920F931F93DF93C2
:10034000CF93CDB7DEB7A0970FB6F894DEBF0FBE40
:10035000CDBF1C016A017B01411551056105710585
:1003600049F4DC01ED91FC910190F081E02D60E316
:10037000099554C0882499245401422E552466249A
:10038000772401E010E00C0F1D1F080D191DC70197
:10039000B601A30192010E94C503F801608308948D
:1003A000811C911CA11CB11CC701B601A3019201C3
:1003B0000E94C503C901DA016C017D01C114D10499
:1003C000E104F104F1F681E0E82EF12CEC0EFD1EC3
:1003D000E80CF91C3E010894611C711CD501C40194
:1003E0000197A109B1096C01C818D90814C0F60118
:1003F000EE0DFF1D60816A3010F4605D01C0695C24
:10040000D101ED91FC910190F081E02DC1010995A0
:100410000894E108F1086E147F0449F7A0960FB61E
:10042000F894DEBF0FBECDBFCF91DF911F910F912A
:10043000FF90EF90DF90CF90BF90AF909F908F9004
:100440007F906F905F904F903F902F9008952AE09B
:100450000E948F0108950F931F938C010E94270221
:10046000C8010E9478011F910F910895823000F514
:10047000E82FF0E0EE0FFF1FE456FE4F718360831C
:10048000882319F08130A1F408C0809169008C7F25
:10049000842B80936900E89A089580916900440F45
:1004A000551F440F551F837F842B80936900E99A61
:1004B00008951F920F920FB60F9211242F933F931E
:1004C0004F935F936F937F938F939F93AF93BF935C
:1004D000EF93FF9380919C0190919D01892B29F0CE
:1004E000E0919C01F0919D010995FF91EF91BF91E1
:1004F000AF919F918F917F916F915F914F913F91BC
:100500002F910F900FBE0F901F9018951F920F9272
:100510000FB60F9211242F933F934F935F936F93D6
:100520007F938F939F93AF93BF93EF93FF938091AC
:100530009E0190919F01892B29F0E0919E01F091FD
:100540009F010995FF91EF91BF91AF919F918F917D
:100550007F916F915F914F913F912F910F900FBEBF
:100560000F901F9018951F920F920FB60F921124A3
:100570002F938F939F93AF93BF938091A0019091FE
:10058000A101A091A201B091A3010196A11DB11DED
:100590008093A0019093A101A093A201B093A30125
:1005A0008091A4019091A501A091A601B091A7010D
:1005B0008050904CAF4FBF4F8093A4019093A50102
:1005C000A093A601B093A70127C08091A4019091A8
:1005D000A501A091A601B091A70180589E43A0401B
:1005E000B0408093A4019093A501A093A601B0937D
:1005F000A7018091A8019091A901A091AA01B091B1
:10060000AB010196A11DB11D8093A8019093A90192
:10061000A093AA01B093AB018091A4019091A50190
:10062000A091A601B091A70181589E43A040B0407F
:1006300060F6BF91AF919F918F912F910F900FBE58
:100640000F901F9018956FB7F89486B590E0A0E0D2
:10065000B0E0A89B08C00097A105B10521F480E097
:1006600091E0A0E0B0E02091A0013091A101409183
:10067000A2015091A3016FBF542F432F322F222785
:10068000280F391F4A1F5B1F82E0220F331F441FB0
:10069000551F8A95D1F7B901CA010895EF92FF92CB
:1006A0000F931F937B018C018FB7F8944091A801A1
:1006B0005091A9016091AA017091AB018FBF2FB732
:1006C000F8948091A8019091A901A091AA01B091FC
:1006D000AB012FBF841B950BA60BB70BE816F906D1
:1006E0000A071B0760F71F910F91FF90EF90089585
:1006F000789484B5826084BD84B5816084BD85B5FD
:10070000826085BD85B5816085BDEEE6F0E08081C3
:1007100081608083E1E8F0E0808182608083808175
:1007200081608083E0E8F0E0808181608083E1EB9C
:10073000F0E0808184608083E0EBF0E08081816084
:100740008083EAE7F0E0808184608083808182603A
:100750008083808181608083808180688083109223
:10076000C100089597FB092E07260AD077FD04D013
:1007700049D006D000201AF4709561957F4F0895F6
:10078000F6F7909581959F4F0895A1E21A2EAA1B26
:10079000BB1BFD010DC0AA1FBB1FEE1FFF1FA21731
:1007A000B307E407F50720F0A21BB30BE40BF50B2E
:1007B000661F771F881F991F1A9469F760957095B7
:1007C000809590959B01AC01BD01CF01089597FBE9
:1007D000092E05260ED057FD04D0D7DF0AD0001C05
:1007E00038F450954095309521953F4F4F4F5F4FCE
:1007F0000895F6F790958095709561957F4F8F4F8E
:100800009F4F0895AA1BBB1B51E107C0AA1FBB1F26
:10081000A617B70710F0A61BB70B881F991F5A958C
:10082000A9F780959095BC01CD010895EE0FFF1FAB
:0C0830000590F491E02D0994F894FFCF9E
:06083C00000000002E0187
:00000001FF
