:100000000C9462000C948A000C948A000C948A0070
:100010000C948A000C948A000C948A000C948A0038
:100020000C948A000C948A000C948A000C948A0028
:100030000C948A000C948A000C948A000C948A0018
:100040000C949B010C948A000C94AB000C948A00D5
:100050000C948A000C948A000C948A000C948A00F8
:100060000C948A000C948A000000000024002700F1
:100070002A0000000000250028002B0000000000DE
:1000800023002600290004040404040404040202DA
:100090000202020203030303030301020408102007
:1000A0004080010204081020010204081020000012
:1000B0000007000201000003040600000000000029
:1000C0000000640111241FBECFEFD8E0DEBFCDBF1A
:1000D00011E0A0E0B1E0EEEEF6E002C005900D9276
:1000E000A830B107D9F711E0A8E0B1E001C01D9236
:1000F000AA3AB107E1F710E0C4ECD0E004C02297BF
:10010000FE010E947103C23CD107C9F70E94A400FE
:100110000C9475030C940000809100010E94BC02B5
:10012000682F8DE00E946F0264E670E080E090E04E
:100130000E940B0208958CE891E040E855E260E0EF
:1001400070E00E94E80008950E9435020E949B0022
:100150000E948C00FDCF1F920F920FB60F921124B8
:100160002F933F934F935F936F937F938F939F93BF
:10017000AF93BF93EF93FF934091C600E091880146
:10018000F0918901CF01019660E870E00E940B03B5
:100190009C0180918A0190918B012817390739F0D1
:1001A000E85FFE4F40833093890120938801FF91DF
:1001B000EF91BF91AF919F918F917F916F915F91DF
:1001C0004F913F912F910F900FBE0F901F90189558
:1001D000AF92BF92CF92DF92EF92FF920F931F9355
:1001E000CF93DF936C017A018B01DC011496AD9003
:1001F000BC901597CB01BA0122E030E040E050E01E
:100200000E941E03205C3D4B404F5F4FCA01B90165
:10021000A80197010E941E03C901DA010197A109F3
:10022000B109292F3A2F4B2F552747FD5A95019693
:10023000A11DB11DE5012883E601EE81FF818150FA
:100240008083EA85FB85208141E050E0CA010E846D
:1002500002C0880F991F0A94E2F7282B2083EA85B1
:10026000FB852081CA010F8402C0880F991F0A9460
:10027000E2F7282B2083EA85FB858081088802C06D
:10028000440F551F0A94E2F7842B8083DF91CF91AE
:100290001F910F91FF90EF90DF90CF90BF90AF90A4
:1002A0000895FC01A085B18521898C9190E0022EF2
:1002B00002C0959587950A94E2F780FFF6CF0484F3
:1002C000F585E02D6083089586E091E090938D019F
:1002D00080938C0188E091E090938F0180938E0150
:1002E00085EC90E0909391018093900184EC90E0F4
:1002F000909393018093920180EC90E0909395010C
:100300008093940181EC90E0909397018093960103
:1003100086EC90E0909399018093980184E080931B
:100320009A0183E080939B0187E080939C0185E0A4
:1003300080939D0108951F920F920FB60F92112482
:100340002F938F939F93AF93BF9380919E01909132
:100350009F01A091A001B091A1010196A11DB11D25
:1003600080939E0190939F01A093A001B093A1015F
:100370008091A2019091A301A091A401B091A50147
:100380008050904CAF4FBF4F8093A2019093A30138
:10039000A093A401B093A50127C08091A2019091E0
:1003A000A301A091A401B091A50180589E43A04053
:1003B000B0408093A2019093A301A093A401B093B5
:1003C000A5018091A6019091A701A091A801B091EB
:1003D000A9010196A11DB11D8093A6019093A701CB
:1003E000A093A801B093A9018091A2019091A301CB
:1003F000A091A401B091A50181589E43A040B040B6
:1004000060F6BF91AF919F918F912F910F900FBE8A
:100410000F901F901895EF92FF920F931F937B01FF
:100420008C018FB7F8944091A6015091A70160917B
:10043000A8017091A9018FBF2FB7F8948091A601F0
:100440009091A701A091A801B091A9012FBF841B91
:10045000950BA60BB70BE816F9060A071B0760F702
:100460001F910F91FF90EF900895789484B582606A
:1004700084BD84B5816084BD85B5826085BD85B548
:10048000816085BDEEE6F0E0808181608083E1E8F7
:10049000F0E0808182608083808181608083E0E8F9
:1004A000F0E0808181608083E1EBF0E08081846016
:1004B0008083E0EBF0E0808181608083EAE7F0E018
:1004C000808184608083808182608083808181607C
:1004D00080838081806880831092C1000895482FB6
:1004E00050E0CA0182559F4FFC012491CA018656F3
:1004F0009F4FFC0194914A575F4FFA013491332387
:10050000D1F1222331F1233021F4809180008F77C3
:1005100005C0243031F4809180008F7D809380006D
:1005200018C0213019F484B58F7704C0223021F42B
:1005300084B58F7D84BD0DC0263021F48091B0003C
:100540008F7705C0273029F48091B0008F7D80938C
:10055000B000E32FF0E0EE0FFF1FEE58FF4FA59124
:10056000B491662329F48C91909589238C930895F6
:100570008C91892B8C930895682F70E0CB01825564
:100580009F4FFC012491CB0186569F4FFC01449163
:100590006A577F4FFB019491992319F420E030E0D2
:1005A00038C0222331F1233021F4809180008F77ED
:1005B00005C0243031F4809180008F7D80938000CD
:1005C00018C0213019F484B58F7704C0223021F48B
:1005D00084B58F7D84BD0DC0263021F48091B0009C
:1005E0008F7705C0273029F48091B0008F7D8093EC
:1005F000B000892F90E0880F991F84589F4FFC010D
:10060000A591B4918C9120E030E0842311F021E099
:1006100030E0C901089597FB092E07260AD077FD1F
:1006200004D027D006D000201AF4709561957F4F32
:100630000895F6F7909581959F4F089597FB092EA1
:1006400005260ED057FD04D028D00AD0001C38F45F
:1006500050954095309521953F4F4F4F5F4F0895EE
:10066000F6F790958095709561957F4F8F4F9F4FCE
:100670000895AA1BBB1B51E107C0AA1FBB1FA617E9
:10068000B70710F0A61BB70B881F991F5A95A9F73B
:1006900080959095BC01CD010895A1E21A2EAA1B68
:1006A000BB1BFD010DC0AA1FBB1FEE1FFF1FA21722
:1006B000B307E407F50720F0A21BB30BE40BF50B1F
:1006C000661F771F881F991F1A9469F760957095A8
:1006D000809590959B01AC01BD01CF010895EE0F6F
:0E06E000FF1F0590F491E02D0994F894FFCFD0
:0806EE000300000000005101AF
:00000001FF
