:100000000C9462000C94CE060C94FB060C948A00AF
:100010000C948A000C948A000C948A000C948A0038
:100020000C948A000C948A000C948A000C948A0028
:100030000C948A000C948A000C948A000C948A0018
:100040000C9428070C948A000C94ED030C948A00FD
:100050000C948A000C948A000C948A000C948A00F8
:100060000C948A000C948A000000000024002700F1
:100070002A0000000000250028002B0000000000DE
:1000800023002600290004040404040404040202DA
:100090000202020203030303030301020408102007
:1000A0004080010204081020010204081020000012
:1000B0000007000201000003040600000000000029
:1000C0000000A60411241FBECFEFD8E0DEBFCDBFD5
:1000D00012E0A0E0B1E0E4EDF6E102C005900D927F
:1000E000A631B107D9F713E0A6E1B2E001C01D9235
:1000F000AB33B107E1F710E0C4ECD0E004C02297C5
:10010000FE010E94640BC23CD107C9F70E94340370
:100110000C94680B0C940000CF92DF92EF92FF9248
:100120000F931F93CF93DF930F2EF0E0EF2EF0E0AD
:10013000FF2EF0E00F2FF0E01F2FF02DCC24DD2458
:10014000C0E0D0E0FE01EE0FFF1FEE0FFF1FE65EE6
:10015000FD4F80819181A281B38189569041A04059
:10016000B04088F060817181828193810E94E509AD
:100170009B01AC01C801B7010E94E4087B018C011E
:100180000894C11CD11C2196CA30D105D9F6B601FC
:10019000882777FD8095982F0E94E70920E034E2B8
:1001A00044E759E40E949B0AA80197010E944C0968
:1001B0006093790270937A0280937B0290937C0221
:1001C000DF91CF911F910F91FF90EF90DF90CF9033
:1001D0000895EF92FF920F931F93CF93DF938C01BB
:1001E0007B01009719F084E061E002C084E060E0E8
:1001F0000E94470885E060E00E944708C0E0D0E028
:100200002EC08DE061E00E94470885E061E00E9419
:10021000470880E090E001C001968F3F9105E1F72B
:1002200085E060E00E9447080130110531F48091BB
:10023000770290917802019609C08FEF0F3F18075F
:1002400049F4809177029091780201979093780217
:10025000809377028DE060E00E9447082196CE15DA
:10026000DF057CF2DF91CF911F910F91FF90EF900E
:100270000895AF92BF92CF92DF92EF92FF920F93C9
:100280001F930E948C008091850290918602A0911C
:100290008702B09188028093810290938202A0939A
:1002A0008302B09384028091890290918A02A09186
:1002B0008B02B0918C028093850290938602A0936A
:1002C0008702B09388026091790270917A028091DE
:1002D0007B0290917C0220910B0230910C024091A4
:1002E0000D0250910E020E94E3087B018C01609385
:1002F000890270938A0280938B0290938C022091E2
:100300008D0230918E0240918F02509190020E9496
:10031000E4085B016C0160938D0270938E02809300
:100320008F0290939002E0929102F09292020093D9
:1003300093021093940220E030E040EA50E40E94DF
:10034000970A18161CF481E090E00CC0C601B501B4
:1003500020E030E040EA50EC0E944809882334F461
:1003600080E090E061E070E00E94E90064E670E007
:1003700080E090E00E94C30760911602709117021E
:1003800080911802909119022AE030E040E050E09C
:100390000E94110B6115710581059105C1F0409115
:1003A000790250917A0260917B0270917C0289E11E
:1003B00093E00E94940689E193E060E071E00E947E
:1003C000DD046AE070E080E090E00E94C307809165
:1003D000160290911702A0911802B091190201968D
:1003E000A11DB11D8093160290931702A0931802CD
:1003F000B09319021F910F91FF90EF90DF90CF9073
:10040000BF90AF9008958DE061E00E94270884E0DE
:1004100061E00E94270885E061E00E94270880E0F3
:1004200090E0A0EABEE380937D0290937E02A093C9
:100430007F02B093800288EE93E0909378028093DD
:10044000770289E193E040E855E260E070E00E94C5
:100450002A0489E193E068E271E00E94DD044091A2
:10046000760250E060E070E089E193E022E030E065
:100470000E94020689E193E061E371E00E940C05AD
:1004800065E070E080E090E00E94C30782E061E0F8
:100490000E94470882E00E949408892BD1F589E1E7
:1004A00093E06EE371E00E94DD0489E193E040E0B7
:1004B00050E060E070E022E030E00E94ED0589E16C
:1004C00093E06CE471E00E940C050CC080E090E0C9
:1004D0006AE070E00E94E90064E670E080E090E08D
:1004E0000E94C30782E00E949408892B79F380E080
:1004F00090E062E370E00E94E900109278021092AE
:10050000770281E08093760289E193E069E571E00A
:1005100064C089E193E06EE371E00E94DD0489E14B
:1005200093E061E070E00E94E50589E193E06FE50A
:1005300071E00E940C0589E193E068E271E00E949D
:10054000DD044091760250E060E070E089E193E0E4
:1005500022E030E00E94020681E090E065E070E079
:100560000E94E90068EC70E080E090E00E94C30720
:1005700082E00E949408892B79F768EE73E080E0AE
:1005800090E00E94C30780E090E065E070E00E9488
:10059000E90068EE73E080E090E00E94C30782E02B
:1005A0000E949408019779F780E090E065E070E0A0
:1005B0000E94E90081E08093760210927802109206
:1005C000770280917602882321F080E00E94BB06AA
:1005D00006C089E193E06DE671E00E940C050E947F
:1005E00098076093720270937302809374029093E1
:1005F000750281E06BE373E043E050E00E949806EF
:1006000026C089E193E069EB71E00E94DD0440912E
:100610006A0250916B0260916C0270916D0289E1E7
:1006200093E00E94B3058DE061E00E94470864E614
:1006300070E080E090E00E94C3078DE060E00E94DF
:10064000470864E670E080E090E00E94C307809174
:100650006A0290916B02A0916C02B0916D020A97B0
:10066000A105B10570F208950E94ED070E940302F2
:100670000E943901FDCFF8940E94980760936E02A2
:1006800070936F02809370029093710289E193E0FE
:100690006FEC71E00E94DD0440916E0250916F0298
:1006A0006091700270917102809172029091730258
:1006B000A0917402B0917502481B590B6A0B7B0B19
:1006C00089E193E00E94B30520916E0230916F02A0
:1006D0004091700250917102809172029091730268
:1006E000A0917402B091750282179307A407B50711
:1006F00008F061C060916A0270916B0280916C0297
:1007000090916D022AE030E040E050E00E94110B31
:1007100020916E0230916F024091700250917102EF
:100720008091720290917302A0917402B09175024F
:10073000281B390B4A0B5B0BFB01EE0FFF1FEE0F63
:10074000FF1FE65EFD4F2083318342835383609118
:100750006A0270916B0280916C0290916D022AE0A6
:1007600030E040E050E00E94110B80916E029091C9
:100770006F02A0917002B0917102FB01EE0FFF1F9A
:10078000EE0FFF1FEE5BFD4F80839183A283B38347
:1007900080916A0290916B02A0916C02B0916D02FF
:1007A0000196A11DB11D80936A0290936B02A093E4
:1007B0006C02B0936D0280916E0290916F02A091D5
:1007C0007002B09171028093720290937302A093B1
:1007D0007402B0937502789408951F920F920FB629
:1007E0000F9211242F933F934F935F936F937F93B7
:1007F0008F939F93AF93BF93EF93FF934091C60066
:10080000E0911503F0911603CF01019660E870E0C6
:100810000E94FE0A9C0180911703909118032817EB
:10082000390739F0EB56FD4F408330931603209380
:100830001503FF91EF91BF91AF919F918F917F91A0
:100840006F915F914F913F912F910F900FBE0F903D
:100850001F901895AF92BF92CF92DF92EF92FF92C6
:100860000F931F93CF93DF936C017A018B01DC010F
:100870001496AD90BC901597CB01BA0122E030E000
:1008800040E050E00E94330B205C3D4B404F5F4FF7
:10089000CA01B901A80197010E94330BC901DA010D
:1008A0000197A109B109292F3A2F4B2F552747FD51
:1008B0005A950196A11DB11DE5012883E601EE813F
:1008C000FF8181508083EA85FB85208141E050E0F3
:1008D000CA010E8402C0880F991F0A94E2F7282BE0
:1008E0002083EA85FB852081CA010F8402C0880F1E
:1008F000991F0A94E2F7282B2083EA85FB858081E3
:10090000088802C0440F551F0A94E2F7842B8083A5
:10091000DF91CF911F910F91FF90EF90DF90CF90DB
:10092000BF90AF900895FC01A085B18521898C917D
:1009300090E0022E02C0959587950A94E2F780FF19
:10094000F6CF0484F585E02D6083089583E192E07D
:1009500090931A038093190385E992E090931C0306
:1009600080931B0385EC90E090931E0380931D03FE
:1009700084EC90E09093200380931F0380EC90E040
:10098000909322038093210381EC90E090932403C1
:100990008093230386EC90E09093260380932503B5
:1009A00084E08093270383E08093280387E080938B
:1009B000290385E080932A0308950F931F93CF9313
:1009C000DF938C01EB0109C02196D801ED91FC91D8
:1009D0000190F081E02DC801099568816623A1F797
:1009E000DF91CF911F910F9108950F931F938C0169
:1009F000DC01ED91FC910190F081E02D6DE0099515
:100A0000D801ED91FC910190F081E02DC8016AE0E0
:100A100009951F910F9108950F931F938C010E94C8
:100A2000DD04C8010E94F5041F910F9108952F92D3
:100A30003F924F925F926F927F928F929F92AF926E
:100A4000BF92CF92DF92EF92FF920F931F93DF93AB
:100A5000CF93CDB7DEB7A0970FB6F894DEBF0FBE29
:100A6000CDBF1C016A017B0141155105610571056E
:100A700049F4DC01ED91FC910190F081E02D60E3FF
:100A8000099554C0882499245401422E5524662483
:100A9000772401E010E00C0F1D1F080D191DC70180
:100AA000B601A30192010E94110BF8016083089422
:100AB000811C911CA11CB11CC701B601A3019201AC
:100AC0000E94110BC901DA016C017D01C114D1042E
:100AD000E104F104F1F681E0E82EF12CEC0EFD1EAC
:100AE000E80CF91C3E010894611C711CD501C4017D
:100AF0000197A109B1096C01C818D90814C0F60101
:100B0000EE0DFF1D60816A3010F4605D01C0695C0C
:100B1000D101ED91FC910190F081E02DC101099589
:100B20000894E108F1086E147F0449F7A0960FB607
:100B3000F894DEBF0FBECDBFCF91DF911F910F9113
:100B4000FF90EF90DF90CF90BF90AF909F908F90ED
:100B50007F906F905F904F903F902F9008952AE084
:100B60000E94170508950F931F938C010E94AF05F3
:100B7000C8010E94F5041F910F910895EF92FF9212
:100B80000F931F93CF93DF93EC017A018B0177FFD3
:100B90000FC0E881F9810190F081E02D6DE20995A7
:100BA00010950095F094E094E11CF11C011D111DBD
:100BB000CE01B801A7012AE00E941705DF91CF916D
:100BC0001F910F91FF90EF900895AB01662757FD9D
:100BD0006095762F0E94BE050895DC012115310530
:100BE00041F4ED91FC910190F081E02D642F099585
:100BF00008952A30310519F40E94BE0508950E9417
:100C0000170508950F931F938C010E94ED05C801ED
:100C10000E94F5041F910F9108959F92AF92BF9289
:100C2000CF92DF92EF92FF920F931F93CF93DF93B8
:100C3000EC017A018B01922ECB01BA0120E030E069
:100C400040E050E00E944809882364F4E881F9817B
:100C50000190F081E02DCE016DE2099517FB109512
:100C600017F9109520E030E040E05FE3AA240BC0C4
:100C7000CA01B90120E030E040E251E40E944C0991
:100C80009B01AC01A394A91498F3C801B7010E9479
:100C9000E4085B016C010E94B9097B018C01CE0163
:100CA000B801A7010E94AF05992029F0CE0169E0A3
:100CB00072E00E94DD04C801B7010E94E5099B01B2
:100CC000AC01C601B5010E94E30820C020E030E07D
:100CD00040E251E40E949B0A7B018C010E94B4090E
:100CE0005B016C01CC24B7FCC094DC2CCE01B601B6
:100CF000A5010E94BE05C601B5010E94E7099B013E
:100D0000AC01C801B7010E94E3089A949920F1F65A
:100D1000DF91CF911F910F91FF90EF90DF90CF90D7
:100D2000BF90AF909F90089522E00E940D06089515
:100D3000823000F5E82FF0E0EE0FFF1FE55DFC4F7D
:100D400071836083882319F08130A1F408C08091F9
:100D500069008C7F842B80936900E89A08958091C4
:100D60006900440F551F440F551F837F842B8093C8
:100D70006900E99A0895823080F4882319F081305F
:100D800021F402C0E89801C0E998E82FF0E0EE0FE6
:100D9000FF1FE55DFC4F1182108208951F920F9294
:100DA0000FB60F9211242F933F934F935F936F933E
:100DB0007F938F939F93AF93BF93EF93FF93809114
:100DC0002B0390912C03892B29F0E0912B03F091B8
:100DD0002C030995FF91EF91BF91AF919F918F9156
:100DE0007F916F915F914F913F912F910F900FBE27
:100DF0000F901F9018951F920F920FB60F9211240B
:100E00002F933F934F935F936F937F938F939F9312
:100E1000AF93BF93EF93FF9380912D0390912E0397
:100E2000892B29F0E0912D03F0912E030995FF9174
:100E3000EF91BF91AF919F918F917F916F915F9152
:100E40004F913F912F910F900FBE0F901F901895CB
:100E50001F920F920FB60F9211242F938F939F938F
:100E6000AF93BF9380912F0390913003A0913103F2
:100E7000B09132030196A11DB11D80932F03909371
:100E80003003A0933103B0933203809133039091E8
:100E90003403A0913503B09136038050904CAF4F8E
:100EA000BF4F8093330390933403A0933503B093E3
:100EB000360327C08091330390913403A09135030A
:100EC000B091360380589E43A040B04080933303D6
:100ED00090933403A0933503B09336038091370386
:100EE00090913803A0913903B0913A030196A11D66
:100EF000B11D8093370390933803A0933903B093C7
:100F00003A038091330390913403A0913503B0915B
:100F1000360381589E43A040B04060F6BF91AF9128
:100F20009F918F912F910F900FBE0F901F9018954A
:100F30006FB7F89486B590E0A0E0B0E0A89B08C039
:100F40000097A105B10521F480E091E0A0E0B0E0B8
:100F500020912F033091300340913103509132039F
:100F60006FBF542F432F322F2227280F391F4A1FBC
:100F70005B1F82E0220F331F441F551F8A95D1F754
:100F8000B901CA010895EF92FF920F931F937B015D
:100F90008C018FB7F89440913703509138036091DA
:100FA000390370913A038FBF2FB7F89480913703BC
:100FB00090913803A0913903B0913A032FBF841B5D
:100FC000950BA60BB70BE816F9060A071B0760F787
:100FD0001F910F91FF90EF900895789484B58260EF
:100FE00084BD84B5816084BD85B5826085BD85B5CD
:100FF000816085BDEEE6F0E0808181608083E1E87C
:10100000F0E0808182608083808181608083E0E87D
:10101000F0E0808181608083E1EBF0E0808184609A
:101020008083E0EBF0E0808181608083EAE7F0E09C
:101030008081846080838081826080838081816000
:1010400080838081806880831092C1000895282F5A
:1010500030E0C90186569F4FFC0194912A573F4FBB
:10106000F9018491882391F0E82FF0E0EE0FFF1F43
:10107000E859FF4FA591B491662329F48C9190957E
:1010800089238C9308958C91892B8C930895482FF4
:1010900050E0CA0182559F4FFC012491CA01865637
:1010A0009F4FFC0194914A575F4FFA0134913323CB
:1010B000D1F1222331F1233021F4809180008F7708
:1010C00005C0243031F4809180008F7D80938000B2
:1010D00018C0213019F484B58F7704C0223021F470
:1010E00084B58F7D84BD0DC0263021F48091B00081
:1010F0008F7705C0273029F48091B0008F7D8093D1
:10110000B000E32FF0E0EE0FFF1FEE58FF4FA59168
:10111000B491662329F48C91909589238C9308953A
:101120008C91892B8C930895682F70E0CB018255A8
:101130009F4FFC012491CB0186569F4FFC014491A7
:101140006A577F4FFB019491992319F420E030E016
:1011500038C0222331F1233021F4809180008F7731
:1011600005C0243031F4809180008F7D8093800011
:1011700018C0213019F484B58F7704C0223021F4CF
:1011800084B58F7D84BD0DC0263021F48091B000E0
:101190008F7705C0273029F48091B0008F7D809330
:1011A000B000892F90E0880F991F84589F4FFC0151
:1011B000A591B4918C9120E030E0842311F021E0DE
:1011C00030E0C90108955058BB27AA270ED075C139
:1011D00066D130F06BD120F031F49F3F11F41EF452
:1011E0005BC10EF4E095E7FB51C1E92F77D180F3A5
:1011F000BA17620773078407950718F071F49EF514
:101200008FC10EF4E0950B2EBA2FA02D0B01B90162
:1012100090010C01CA01A0011124FF27591B99F06C
:10122000593F50F4503E68F11A16F040A22F232F78
:10123000342F4427585FF3CF469537952795A795C8
:10124000F0405395C9F77EF41F16BA0B620B730B6F
:10125000840BBAF09150A1F0FF0FBB1F661F771FE0
:10126000881FC2F70EC0BA0F621F731F841F48F495
:10127000879577956795B795F7959E3F08F0B3CF1B
:101280009395880F08F09927EE0F97958795089505
:10129000D9D008F481E008950CD00FC107D140F0F7
:1012A000FED030F021F45F3F19F0F0C0511139C188
:1012B000F3C014D198F39923C9F35523B1F3951BC7
:1012C000550BBB27AA2762177307840738F09F5F67
:1012D0005F4F220F331F441FAA1FA9F333D00E2ED6
:1012E0003AF0E0E830D091505040E695001CCAF743
:1012F00029D0FE2F27D0660F771F881FBB1F261708
:1013000037074807AB07B0E809F0BB0B802DBF01DA
:10131000FF2793585F4F2AF09E3F510568F0B6C0F3
:1013200000C15F3FECF3983EDCF3869577956795B7
:10133000B795F7959F5FC9F7880F911D969587958B
:1013400097F90895E1E0660F771F881FBB1F6217AA
:1013500073078407BA0720F0621B730B840BBA0B68
:10136000EE1F88F7E095089504D06894B111D9C0B4
:101370000895BCD088F09F5790F0B92F9927B751A6
:10138000A0F0D1F0660F771F881F991F1AF0BA9549
:10139000C9F712C0B13081F0C3D0B1E00895C0C028
:1013A000672F782F8827B85F39F0B93FCCF386953F
:1013B00077956795B395D9F73EF49095809570959C
:1013C00061957F4F8F4F9F4F0895E89409C097FB19
:1013D0003EF490958095709561957F4F8F4F9F4F0C
:1013E0009923A9F0F92F96E9BB279395F695879550
:1013F00077956795B795F111F8CFFAF4BB0F11F413
:1014000060FF1BC06F5F7F4F8F4F9F4F16C08823B9
:1014100011F096E911C0772321F09EE8872F762FEF
:1014200005C0662371F096E8862F70E060E02AF030
:101430009A95660F771F881FDAF7880F969587951C
:1014400097F90895990F0008550FAA0BE0E8FEEFF1
:1014500016161706E807F907C0F012161306E40778
:10146000F50798F0621B730B840B950B39F40A2671
:1014700061F0232B242B252B21F408950A2609F44F
:10148000A140A6958FEF811D811D089597F99F6753
:1014900080E870E060E008959FEF80EC08950024FC
:1014A0000A941616170618060906089500240A94C9
:1014B00012161306140605060895092E0394000C4F
:1014C00011F4882352F0BB0F40F4BF2B11F460FFDE
:1014D00004C06F5F7F4F8F4F9F4F089557FD905807
:1014E000440F551F59F05F3F71F04795880F97FBE8
:1014F000991F61F09F3F79F08795089512161306A2
:101500001406551FF2CF4695F1DF08C016161706D0
:101510001806991FF1CF8695710561050894089505
:10152000E894BB2766277727CB0197F908958ADFD0
:1015300008F48FEF08950BD0C0CFB1DF28F0B6DFED
:1015400018F0952309F0A2CFA7CF1124EACFC6DF68
:10155000A0F3959FD1F3950F50E0551F629FF001C6
:10156000729FBB27F00DB11D639FAA27F00DB11D1F
:10157000AA1F649F6627B00DA11D661F829F2227A8
:10158000B00DA11D621F739FB00DA11D621F839F2F
:10159000A00D611D221F749F3327A00D611D231F05
:1015A000849F600D211D822F762F6A2F11249F5753
:1015B00050408AF0E1F088234AF0EE0FFF1FBB1F76
:1015C000661F771F881F91505040A9F79E3F510515
:1015D00070F05CCFA6CF5F3FECF3983EDCF38695CE
:1015E00077956795B795F795E7959F5FC1F7FE2BC0
:1015F000880F911D9695879597F9089597FB092E69
:1016000007260AD077FD04D049D006D000201AF46E
:10161000709561957F4F0895F6F7909581959F4F4E
:101620000895A1E21A2EAA1BBB1BFD010DC0AA1F23
:10163000BB1FEE1FFF1FA217B307E407F50720F03B
:10164000A21BB30BE40BF50B661F771F881F991FB6
:101650001A9469F760957095809590959B01AC01FF
:10166000BD01CF01089597FB092E05260ED057FD29
:1016700004D0D7DF0AD0001C38F45095409530953F
:1016800021953F4F4F4F5F4F0895F6F79095809506
:10169000709561957F4F8F4F9F4F0895AA1BBB1B7D
:1016A00051E107C0AA1FBB1FA617B70710F0A61B62
:1016B000B70B881F991F5A95A9F780959095BC0183
:1016C000CD010895EE0FFF1F0590F491E02D0994D0
:0416D000F894FFCFBC
:1016D4000A00686F6D696E6720696E746572727551
:1016E400707400656E6420686F6D696E6720696E42
:1016F4007465727275707400686F6D6564203D2046
:1017040000696E697469616C697A696E67006C69F5
:101714006D69742070696E20697320002C207475C3
:10172400726E696E6720435700686F6D6564002CA4
:10173400207475726E696E6720434357005448499C
:10174400532053484F554C44204E4556455220454E
:101754005845435554453A20736F6D657468696EF6
:10176400672077656E742077726F6E6720616E6490
:101774002074686520646576696365206973206EEA
:101784006F7420686F6D65640066696C6C696E6760
:101794002062756666657220696478203D20007356
:1017A400656E73696E6720696E74657272757074A4
:1017B4002C206E6F77202D207468656E203D2000EC
:1017C4006E657720736574706F696E7420736574C9
:1017D400206174200020487A002E000000C84200D6
:0617E40000000093040068
:00000001FF
