:100000000C9462000C948A000C948A000C948A0070
:100010000C948A000C948A000C948A000C948A0038
:100020000C948A000C948A000C948A000C948A0028
:100030000C948A000C948A000C948A000C948A0018
:100040000C94B4030C948A000C94A2010C948A00C2
:100050000C948A000C948A000C948A000C948A00F8
:100060000C948A000C948A000000000024002700F1
:100070002A0000000000250028002B0000000000DE
:1000800023002600290004040404040404040202DA
:100090000202020203030303030301020408102007
:1000A0004080010204081020010204081020000012
:1000B0000007000201000003040600000000000029
:1000C0000000970211241FBECFEFD8E0DEBFCDBFE6
:1000D00011E0A0E0B1E0ECE8FBE002C005900D9279
:1000E000AE30B107D9F711E0AEE0B1E001C01D922A
:1000F000AE3BB107E1F710E0C4ECD0E004C02297BA
:10010000FE010E94C005C23CD107C9F70E949B01B5
:100110000C94C4050C9400008091000161E00E94E1
:1001200088048091020161E00E94880480910401AA
:1001300061E00E94880480EA91E040E855E260E0D6
:1001400070E00E94DF0108952F923F924F925F92DC
:100150006F927F928F929F92AF92BF92CF92DF92D7
:10016000EF92FF920F931F93CF93DF933C011B01FC
:1001700081E06816710421F48091020161E008C0F9
:100180008FEF68168FEF780629F48091020160E006
:100190000E94A8048091040160E00E94A8048824C1
:1001A00099245BC08091000161E00E94A8048091C5
:1001B000040161E00E94A804C0911201D0911301D2
:1001C000EE24FF2487015C2E4D2E219657016801F5
:1001D0000894A11CB11CC11CD11CC801B7010E940C
:1001E000F90420E030E04FE753E40E94F50488234F
:1001F0001CF486017501E7CF509212014092130161
:10020000E0921401F092150100931601109317016A
:100210008091040160E00E94A80481E068167104E6
:1002200031F4809106019091070101960AC08FEF89
:1002300068168FEF780649F48091060190910701C6
:10024000019790930701809306018091000160E07F
:100250000E94A8040894811C911C821493040CF43D
:10026000A1CFDF91CF911F910F91FF90EF90DF9081
:10027000CF90BF90AF909F908F907F906F905F9046
:100280004F903F902F90089580EA91E00E9448029D
:10029000882309F449C080EA91E00E945C028093BF
:1002A0000E01109218011092190110921A01109269
:1002B0001B01109211011092100113C080EA91E00D
:1002C0000E945C0280930F01992787FD90952091F1
:1002D000100130911101280F391F30931101209323
:1002E000100180EA91E00E944802882339F760916A
:1002F00010017091110180EA91E00E94A4038091A5
:100300000E018B3239F4609110017091110181E07E
:1003100090E008C08D3241F460911001709111019C
:100320008FEF9FEF0E94A40062E370E080E090E016
:100330000E94240408950E944E040E948C000E9492
:100340004401FDCF1F920F920FB60F9211242F93ED
:100350003F934F935F936F937F938F939F93AF934D
:10036000BF93EF93FF934091C600E0919C01F09101
:100370009D01CF01019660E870E00E945A059C0142
:1003800080919E0190919F012817390739F0E45E12
:10039000FE4F408330939D0120939C01FF91EF918C
:1003A000BF91AF919F918F917F916F915F914F918D
:1003B0003F912F910F900FBE0F901F901895AF9205
:1003C000BF92CF92DF92EF92FF920F931F93CF9342
:1003D000DF936C017A018B01DC011496AD90BC9027
:1003E0001597CB01BA0122E030E040E050E00E94D6
:1003F0008F05205C3D4B404F5F4FCA01B901A801FA
:1004000097010E948F05C901DA010197A109B1097D
:10041000292F3A2F4B2F552747FD5A950196A11D9D
:10042000B11DE5012883E601EE81FF8181508083C3
:10043000EA85FB85208141E050E0CA010E8402C0BC
:10044000880F991F0A94E2F7282B2083EA85FB8501
:100450002081CA010F8402C0880F991F0A94E2F715
:10046000282B2083EA85FB858081088802C0440F01
:10047000551F0A94E2F7842B8083DF91CF911F915F
:100480000F91FF90EF90DF90CF90BF90AF900895C5
:10049000DC011296ED91FC911397E058FF4F81918A
:1004A000919180589F4F20813181821B930B60E88E
:1004B00070E00E945A050895CF93DF93DC011296F5
:1004C000ED91FC911397EF01CE57DF4F4881598191
:1004D000E058FF4F80819181E058F04084179507E4
:1004E00019F42FEF3FEF0CC0E40FF51F2081CA0174
:1004F000019660E870E00E945A059983888330E095
:10050000C901DF91CF910895FC01A085B1852189B2
:100510008C9190E0022E02C0959587950A94E2F79F
:1005200080FFF6CF0484F585E02D608308958CE08C
:1005300091E09093A1018093A0018CE191E09093D0
:10054000A3018093A20185EC90E09093A501809394
:10055000A40184EC90E09093A7018093A60180EC25
:1005600090E09093A9018093A80181EC90E0909392
:10057000AB018093AA0186EC90E09093AD0180934B
:10058000AC0184E08093AE0183E08093AF0187E00B
:100590008093B00185E08093B10108950F931F937C
:1005A0008C01DC01ED91FC910190F081E02D6DE07A
:1005B0000995D801ED91FC910190F081E02DC801E1
:1005C0006AE009951F910F9108952F923F924F92E3
:1005D0005F926F927F928F929F92AF92BF92CF92D3
:1005E000DF92EF92FF920F931F93DF93CF93CDB7DC
:1005F000DEB7A0970FB6F894DEBF0FBECDBF1C01CB
:100600006A017B01411551056105710549F4DC0161
:10061000ED91FC910190F081E02D60E3099554C0CB
:10062000882499245401422E55246624772401E01D
:1006300010E00C0F1D1F080D191DC701B601A30105
:1006400092010E946D05F80160830894811C911C41
:10065000A11CB11CC701B601A30192010E946D0546
:10066000C901DA016C017D01C114D104E104F10476
:10067000F1F681E0E82EF12CEC0EFD1EE80CF91CE1
:100680003E010894611C711CD501C4010197A109A8
:10069000B1096C01C818D90814C0F601EE0DFF1D90
:1006A00060816A3010F4605D01C0695CD101ED9138
:1006B000FC910190F081E02DC10109950894E108B9
:1006C000F1086E147F0449F7A0960FB6F894DEBFC8
:1006D0000FBECDBFCF91DF911F910F91FF90EF9093
:1006E000DF90CF90BF90AF909F908F907F906F9052
:1006F0005F904F903F902F900895EF92FF920F934D
:100700001F93CF93DF93EC017A018B0177FF0FC02A
:10071000E881F9810190F081E02D6DE20995109555
:100720000095F094E094E11CF11C011D111DCE0117
:10073000B801A7012AE00E94E502DF91CF911F9145
:100740000F91FF90EF9008950F931F938C01AB01D1
:10075000662757FD6095762F0E947D03C8010E9491
:10076000CE021F910F9108951F920F920FB60F9214
:1007700011242F938F939F93AF93BF938091B201D6
:100780009091B301A091B401B091B5010196A11D62
:10079000B11D8093B2019093B301A093B401B093C3
:1007A000B5018091B6019091B701A091B801B091C7
:1007B000B9018050904CAF4FBF4F8093B6019093DA
:1007C000B701A093B801B093B90127C08091B601D9
:1007D0009091B701A091B801B091B90180589E43A2
:1007E000A040B0408093B6019093B701A093B801A8
:1007F000B093B9018091BA019091BB01A091BC0165
:10080000B091BD010196A11DB11D8093BA019093D5
:10081000BB01A093BC01B093BD018091B601909142
:10082000B701A091B801B091B90181589E43A04091
:10083000B04060F6BF91AF919F918F912F910F9033
:100840000FBE0F901F901895EF92FF920F931F937A
:100850007B018C018FB7F8944091BA015091BB0194
:100860006091BC017091BD018FBF2FB7F89480914A
:10087000BA019091BB01A091BC01B091BD012FBF05
:10088000841B950BA60BB70BE816F9060A071B0786
:1008900060F71F910F91FF90EF900895789484B5C1
:1008A000826084BD84B5816084BD85B5826085BD6C
:1008B00085B5816085BDEEE6F0E080818160808352
:1008C000E1E8F0E0808182608083808181608083C4
:1008D000E0E8F0E0808181608083E1EBF0E08081FE
:1008E00084608083E0EBF0E0808181608083EAE7D0
:1008F000F0E0808184608083808182608083808159
:10090000816080838081806880831092C100089517
:10091000282F30E0C90186569F4FFC0194912A5739
:100920003F4FF9018491882391F0E82FF0E0EE0F1A
:10093000FF1FE859FF4FA591B491662329F48C91CC
:10094000909589238C9308958C91892B8C9308958D
:10095000482F50E0CA0182559F4FFC012491CA01E3
:1009600086569F4FFC0194914A575F4FFA0134918C
:100970003323D1F1222331F1233021F480918000FF
:100980008F7705C0243031F4809180008F7D809373
:10099000800018C0213019F484B58F7704C022304C
:1009A00021F484B58F7D84BD0DC0263021F4809163
:1009B000B0008F7705C0273029F48091B0008F7D7B
:1009C0008093B000E32FF0E0EE0FFF1FEE58FF4FD3
:1009D000A591B491662329F48C91909589238C93E9
:1009E00008958C91892B8C93089540D008F481E070
:1009F0000895E89409C097FB3EF490958095709512
:100A000061957F4F8F4F9F4F9923A9F0F92F96E95A
:100A1000BB279395F695879577956795B795F111CF
:100A2000F8CFFAF4BB0F11F460FF1BC06F5F7F4F6C
:100A30008F4F9F4F16C0882311F096E911C077237E
:100A400021F09EE8872F762F05C0662371F096E887
:100A5000862F70E060E02AF09A95660F771F881F56
:100A6000DAF7880F9695879597F90895990F0008FA
:100A7000550FAA0BE0E8FEEF16161706E807F90770
:100A8000C0F012161306E407F50798F0621B730B0B
:100A9000840B950B39F40A2661F0232B242B252B8C
:100AA00021F408950A2609F4A140A6958FEF811D2F
:100AB000811D089597FB092E07260AD077FD04D0E3
:100AC00049D006D000201AF4709561957F4F0895A3
:100AD000F6F7909581959F4F0895A1E21A2EAA1BD3
:100AE000BB1BFD010DC0AA1FBB1FEE1FFF1FA217DE
:100AF000B307E407F50720F0A21BB30BE40BF50BDB
:100B0000661F771F881F991F1A9469F76095709563
:100B1000809590959B01AC01BD01CF01089597FB95
:100B2000092E05260ED057FD04D0D7DF0AD0001CB1
:100B300038F450954095309521953F4F4F4F5F4F7A
:100B40000895F6F790958095709561957F4F8F4F3A
:100B50009F4F0895AA1BBB1B51E107C0AA1FBB1FD3
:100B6000A617B70710F0A61BB70B881F991F5A9539
:100B7000A9F780959095BC01CD010895EE0FFF1F58
:0C0B80000590F491E02D0994F894FFCF4B
:0E0B8C000D000400050080000000000084023F
:00000001FF
