:100000000C9462000C94C7050C94F4050C948A00BF
:100010000C948A000C948A000C948A000C948A0038
:100020000C948A000C948A000C948A000C948A0028
:100030000C948A000C948A000C948A000C948A0018
:100040000C9421060C948A000C94D8020C948A001B
:100050000C948A000C948A000C948A000C948A00F8
:100060000C948A000C948A000000000024002700F1
:100070002A0000000000250028002B0000000000DE
:1000800023002600290004040404040404040202DA
:100090000202020203030303030301020408102007
:1000A0004080010204081020010204081020000012
:1000B0000007000201000003040600000000000029
:1000C0000000CD0311241FBECFEFD8E0DEBFCDBFAF
:1000D00011E0A0E0B1E0E0E2F4E102C005900D9291
:1000E000AA31B107D9F712E0AAE1B1E001C01D922F
:1000F000AC32B107E1F710E0C4ECD0E004C02297C5
:10010000FE010E940A0AC23CD107C9F70E94D1022F
:100110000C940E0A0C940000CF92DF92EF92FF92A3
:100120000F931F93CF93DF930F2EF0E0EF2EF0E0AD
:10013000FF2EF0E00F2FF0E01F2FF02DCC24DD2458
:10014000C0E0D0E0FE01EE0FFF1FEE0FFF1FEE5DDF
:10015000FE4F80819181A281B38189569041A04058
:10016000B04088F060817181828193810E948F0804
:100170009B01AC01C801B7010E948E077B018C0175
:100180000894C11CD11C2196CA30D105D9F6B601FC
:10019000882777FD8095982F0E94910820E836EAFD
:1001A0004FEB5AE40E944109A80197010E94F6070B
:1001B00060937E0170937F01809380019093810111
:1001C000DF91CF911F910F91FF90EF90DF90CF9033
:1001D0000895F8940E9491066093760170937701D8
:1001E0008093780190937901209176013091770185
:1001F000409178015091790180917A0190917B0131
:10020000A0917C01B0917D0182179307A407B507E7
:1002100008F061C060917201709173018091740166
:10022000909175012AE030E040E050E00E94B7096B
:1002300020917601309177014091780150917901B8
:1002400080917A0190917B01A0917C01B0917D0118
:10025000281B390B4A0B5B0BFB01EE0FFF1FEE0F48
:10026000FF1FEE5DFE4F20833183428353836091F5
:1002700072017091730180917401909175012AE06F
:1002800030E040E050E00E94B70980917601909103
:100290007701A0917801B0917901FB01EE0FFF1F6A
:1002A000EE0FFF1FE65BFE4F80839183A283B38333
:1002B0008091720190917301A0917401B0917501C8
:1002C0000196A11DB11D8093720190937301A093BB
:1002D0007401B09375018091760190917701A0919E
:1002E0007801B091790180937A0190937B01A0937A
:1002F0007C01B0937D01789408950F931F938DE056
:1003000061E00E94200784E061E00E94200785E010
:1003100061E00E9420070AE012E0C80140E855E2CF
:1003200060E070E00E941503C80160E071E00E9487
:100330003B0465E070E080E090E00E94BC060E9413
:10034000910660937A0170937B0180937C01909376
:100350007D0181E069EE70E043E050E00E94A40579
:100360001F910F9108956F927F928F929F92AF92FB
:10037000BF92CF92DF92EF92FF920F931F93CF9392
:10038000DF935C013B01009719F084E061E002C05B
:1003900084E060E00E94400785E060E00E94400742
:1003A000CC24DD244EC08DE061E00E94400785E052
:1003B00061E00E944007C0912001D091210100E03E
:1003C00010E078019C2E8D2E0F5F1F4F2196B701F4
:1003D000882777FD8095982F0E94910820E030E0D3
:1003E0004FE753E40E94F20787FDEBCF9092200184
:1003F00080922101F0921F01E0921E0185E060E0F1
:100400000E94400781E0A816B10431F480911101E7
:100410009091120101960AC08FEFA8168FEFB806CF
:1004200049F480911101909112010197909312016A
:10043000809311018DE060E00E9440070894C11C88
:10044000D11CC614D7040CF4AECFDF91CF911F910D
:100450000F91FF90EF90DF90CF90BF90AF909F9063
:100460008F907F906F9008950E948C006091820120
:1004700070918301809184019091850124E630E0A0
:1004800040E050E00E94B7096115710581059105B2
:10049000D1F060917E0170917F01809180019091F7
:1004A000810123EC35EF48EC50E40E94F607AB01E4
:1004B000BC018AE092E00E94A0058AE092E06DE033
:1004C00071E00E940C046AE070E080E090E00E941D
:1004D000BC068AE092E00E947E03882309F447C0AC
:1004E0008AE092E00E94920380931A0110921D010B
:1004F00010921C0113C08AE092E00E949203809344
:100500001B01992787FD909520911C0130911D01B9
:10051000280F391F30931D0120931C018AE092E0BF
:100520000E947E03882339F78AE092E060911A01E5
:100530000E94040460911C0170911D018AE092E008
:100540000E94090580911A018B3239F460911C01D7
:1005500070911D0180E090E008C08D3241F46091FF
:100560001C0170911D0181E090E00E94B30164E6DE
:1005700070E080E090E00E94BC0680918201909142
:100580008301A0918401B09185010196A11DB11D47
:100590008093820190938301A0938401B09385019D
:1005A00008950E94E6060E947D010E943402FDCF5C
:1005B0001F920F920FB60F9211242F933F934F93D8
:1005C0005F936F937F938F939F93AF93BF93EF93BB
:1005D000FF934091C600E0910602F0910702CF011F
:1005E000019660E870E00E94A4099C0180910802D5
:1005F000909109022817390739F0EA57FE4F4083D6
:100600003093070220930602FF91EF91BF91AF91C3
:100610009F918F917F916F915F914F913F912F911A
:100620000F900FBE0F901F901895AF92BF92CF9270
:10063000DF92EF92FF920F931F93CF93DF936C01A2
:100640007A018B01DC011496AD90BC901597CB011B
:10065000BA0122E030E040E050E00E94D909205C7D
:100660003D4B404F5F4FCA01B901A80197010E945D
:10067000D909C901DA010197A109B109292F3A2F36
:100680004B2F552747FD5A950196A11DB11DE50138
:100690002883E601EE81FF8181508083EA85FB8516
:1006A000208141E050E0CA010E8402C0880F991FEA
:1006B0000A94E2F7282B2083EA85FB852081CA0172
:1006C0000F8402C0880F991F0A94E2F7282B208319
:1006D000EA85FB858081088802C0440F551F0A9473
:1006E000E2F7842B8083DF91CF911F910F91FF90D0
:1006F000EF90DF90CF90BF90AF900895DC011296FD
:10070000ED91FC911397E058FF4F819191918058A2
:100710009F4F20813181821B930B60E870E00E9423
:10072000A4090895CF93DF93DC011296ED91FC911B
:100730001397EF01CE57DF4F48815981E058FF4FA3
:1007400080819181E058F0408417950719F42FEFCC
:100750003FEF0CC0E40FF51F2081CA01019660E84D
:1007600070E00E94A4099983888330E0C901DF9179
:10077000CF910895FC01A085B18521898C9190E0ED
:10078000022E02C0959587950A94E2F780FFF6CF76
:100790000484F585E02D6083089587E191E09093CE
:1007A0000B0280930A0286E891E090930D028093F9
:1007B0000C0285EC90E090930F0280930E0284EC83
:1007C00090E0909311028093100280EC90E090935F
:1007D00013028093120281EC90E0909315028093B3
:1007E000140286EC90E0909317028093160284E046
:1007F0008093180283E08093190287E080931A02A5
:1008000085E080931B020895DC01ED91FC9101903D
:10081000F081E02D099508950F931F93CF93DF93F7
:100820008C01EB0109C02196D801ED91FC9101905A
:10083000F081E02DC801099568816623A1F7DF9159
:10084000CF911F910F9108950F931F938C01DC019D
:10085000ED91FC910190F081E02D6DE00995D801BA
:10086000ED91FC910190F081E02DC8016AE00995BD
:100870001F910F9108950F931F938C010E940C04F8
:10088000C8010E9424041F910F9108952F923F9256
:100890004F925F926F927F928F929F92AF92BF9290
:1008A000CF92DF92EF92FF920F931F93DF93CF933C
:1008B000CDB7DEB7A0970FB6F894DEBF0FBECDBFA1
:1008C0001C016A017B01411551056105710549F45F
:1008D000DC01ED91FC910190F081E02D60E3099540
:1008E00054C0882499245401422E55246624772428
:1008F00001E010E00C0F1D1F080D191DC701B60106
:10090000A30192010E94B709F80160830894811C39
:10091000911CA11CB11CC701B601A30192010E9448
:10092000B709C901DA016C017D01C114D104E104E8
:10093000F104F1F681E0E82EF12CEC0EFD1EE80C3E
:10094000F91C3E010894611C711CD501C40101977A
:10095000A109B1096C01C818D90814C0F601EE0D3F
:10096000FF1D60816A3010F4605D01C0695CD101D7
:10097000ED91FC910190F081E02DC1010995089461
:10098000E108F1086E147F0449F7A0960FB6F894B9
:10099000DEBF0FBECDBFCF91DF911F910F91FF90B2
:1009A000EF90DF90CF90BF90AF909F908F907F900F
:1009B0006F905F904F903F902F9008952AE00E9493
:1009C00046040895EF92FF920F931F93CF93DF9306
:1009D000EC017A018B0177FF0FC0E881F98101906A
:1009E000F081E02D6DE2099510950095F094E0946A
:1009F000E11CF11C011D111DCE01B801A7012AE067
:100A00000E944604DF91CF911F910F91FF90EF90CC
:100A100008950F931F938C01AB01662757FD6095D6
:100A2000762F0E94E204C8010E9424041F910F91B6
:100A300008959F92AF92BF92CF92DF92EF92FF9272
:100A40000F931F93CF93DF93EC017A018B01922ECA
:100A5000CB01BA0120E030E040E050E00E94F20714
:100A6000882364F4E881F9810190F081E02DCE01C2
:100A70006DE2099517FB109517F9109520E030E00D
:100A800040E05FE3AA240BC0CA01B90120E030E0D6
:100A900040E251E40E94F6079B01AC01A394A91423
:100AA00098F3C801B7010E948E075B016C010E9498
:100AB00063087B018C01CE01B801A7010E94DE040E
:100AC000992029F0CE016FE071E00E940C04C8016A
:100AD000B7010E948F089B01AC01C601B5010E94BD
:100AE0008D0720C020E030E040E251E40E9441093F
:100AF0007B018C010E945E085B016C01CC24B7FC79
:100B0000C094DC2CCE01B601A5010E94E204C6010E
:100B1000B5010E9491089B01AC01C801B7010E9478
:100B20008D079A949920F1F6DF91CF911F910F9143
:100B3000FF90EF90DF90CF90BF90AF909F9008957F
:100B400022E00E9419050895823000F5E82FF0E0B8
:100B5000EE0FFF1FE45EFD4F71836083882319F061
:100B60008130A1F408C0809169008C7F842B809330
:100B70006900E89A089580916900440F551F440F59
:100B8000551F837F842B80936900E99A08951F92F3
:100B90000F920FB60F9211242F933F934F935F93B1
:100BA0006F937F938F939F93AF93BF93EF93FF9335
:100BB00080911C0290911D02892B29F0E0911C026A
:100BC000F0911D020995FF91EF91BF91AF919F9117
:100BD0008F917F916F915F914F913F912F910F90E6
:100BE0000FBE0F901F9018951F920F920FB60F9285
:100BF00011242F933F934F935F936F937F938F9322
:100C00009F93AF93BF93EF93FF9380911E029091B8
:100C10001F02892B29F0E0911E02F0911F02099515
:100C2000FF91EF91BF91AF919F918F917F916F91C4
:100C30005F914F913F912F910F900FBE0F901F909A
:100C400018951F920F920FB60F9211242F938F9326
:100C50009F93AF93BF938091200290912102A09126
:100C60002202B09123020196A11DB11D80932002A2
:100C700090932102A0932202B09323028091240238
:100C800090912502A0912602B09127028050904CAD
:100C9000AF4FBF4F8093240290932502A09326026A
:100CA000B093270227C08091240290912502A09141
:100CB0002602B091270280589E43A040B040809306
:100CC000240290932502A0932602B09327028091DC
:100CD000280290912902A0912A02B0912B0201963C
:100CE000A11DB11D8093280290932902A0932A028E
:100CF000B0932B028091240290912502A0912602AC
:100D0000B091270281589E43A040B04060F6BF9149
:100D1000AF919F918F912F910F900FBE0F901F90C9
:100D200018956FB7F89486B590E0A0E0B0E0A89B66
:100D300008C00097A105B10521F480E091E0A0E092
:100D4000B0E0209120023091210240912202509186
:100D500023026FBF542F432F322F2227280F391F12
:100D60004A1F5B1F82E0220F331F441F551F8A95C5
:100D7000D1F7B901CA010895EF92FF920F931F9323
:100D80007B018C018FB7F894409128025091290281
:100D900060912A0270912B028FBF2FB7F894809137
:100DA000280290912902A0912A02B0912B022FBF14
:100DB000841B950BA60BB70BE816F9060A071B0751
:100DC00060F71F910F91FF90EF900895789484B58C
:100DD000826084BD84B5816084BD85B5826085BD37
:100DE00085B5816085BDEEE6F0E08081816080831D
:100DF000E1E8F0E08081826080838081816080838F
:100E0000E0E8F0E0808181608083E1EBF0E08081C8
:100E100084608083E0EBF0E0808181608083EAE79A
:100E2000F0E0808184608083808182608083808123
:100E3000816080838081806880831092C1000895E2
:100E4000282F30E0C90186569F4FFC0194912A5704
:100E50003F4FF9018491882391F0E82FF0E0EE0FE5
:100E6000FF1FE859FF4FA591B491662329F48C9197
:100E7000909589238C9308958C91892B8C93089558
:100E8000482F50E0CA0182559F4FFC012491CA01AE
:100E900086569F4FFC0194914A575F4FFA01349157
:100EA0003323D1F1222331F1233021F480918000CA
:100EB0008F7705C0243031F4809180008F7D80933E
:100EC000800018C0213019F484B58F7704C0223017
:100ED00021F484B58F7D84BD0DC0263021F480912E
:100EE000B0008F7705C0273029F48091B0008F7D46
:100EF0008093B000E32FF0E0EE0FFF1FEE58FF4F9E
:100F0000A591B491662329F48C91909589238C93B3
:100F100008958C91892B8C9308955058BB27AA274C
:100F20000ED075C166D130F06BD120F031F49F3F07
:100F300011F41EF45BC10EF4E095E7FB51C1E92FFB
:100F400077D180F3BA17620773078407950718F003
:100F500071F49EF58FC10EF4E0950B2EBA2FA02DE3
:100F60000B01B90190010C01CA01A0011124FF2756
:100F7000591B99F0593F50F4503E68F11A16F04051
:100F8000A22F232F342F4427585FF3CF4695379550
:100F90002795A795F0405395C9F77EF41F16BA0B15
:100FA000620B730B840BBAF09150A1F0FF0FBB1FC3
:100FB000661F771F881FC2F70EC0BA0F621F731F0C
:100FC000841F48F4879577956795B795F7959E3F69
:100FD00008F0B3CF9395880F08F09927EE0F9795F7
:100FE00087950895D9D008F481E008950CD00FC1F9
:100FF00007D140F0FED030F021F45F3F19F0F0C08F
:10100000511139C1F3C014D198F39923C9F3552371
:10101000B1F3951B550BBB27AA27621773078407EB
:1010200038F09F5F5F4F220F331F441FAA1FA9F3A1
:1010300033D00E2E3AF0E0E830D091505040E69593
:10104000001CCAF729D0FE2F27D0660F771F881FF4
:10105000BB1F261737074807AB07B0E809F0BB0BE3
:10106000802DBF01FF2793585F4F2AF09E3F510507
:1010700068F0B6C000C15F3FECF3983EDCF38695A4
:1010800077956795B795F7959F5FC9F7880F911D7D
:101090009695879597F90895E1E0660F771F881F69
:1010A000BB1F621773078407BA0720F0621B730B1C
:1010B000840BBA0BEE1F88F7E095089504D068946E
:1010C000B111D9C00895BCD088F09F5790F0B92FC6
:1010D0009927B751A0F0D1F0660F771F881F991F8D
:1010E0001AF0BA95C9F712C0B13081F0C3D0B1E09F
:1010F0000895C0C0672F782F8827B85F39F0B93FAF
:10110000CCF3869577956795B395D9F73EF490958E
:101110008095709561957F4F8F4F9F4F0895E8940C
:1011200009C097FB3EF490958095709561957F4F2F
:101130008F4F9F4F9923A9F0F92F96E9BB279395DD
:10114000F695879577956795B795F111F8CFFAF4ED
:10115000BB0F11F460FF1BC06F5F7F4F8F4F9F4F1E
:1011600016C0882311F096E911C0772321F09EE87C
:10117000872F762F05C0662371F096E8862F70E0E2
:1011800060E02AF09A95660F771F881FDAF7880FBC
:101190009695879597F90895990F0008550FAA0B12
:1011A000E0E8FEEF16161706E807F907C0F012167A
:1011B0001306E407F50798F0621B730B840B950B7D
:1011C00039F40A2661F0232B242B252B21F40895D2
:1011D0000A2609F4A140A6958FEF811D811D08956F
:1011E00097F99F6780E870E060E008959FEF80ECDA
:1011F000089500240A94161617061806090608957D
:1012000000240A9412161306140605060895092EE2
:101210000394000C11F4882352F0BB0F40F4BF2B51
:1012200011F460FF04C06F5F7F4F8F4F9F4F089591
:1012300057FD9058440F551F59F05F3F71F0479587
:10124000880F97FB991F61F09F3F79F0879508956C
:10125000121613061406551FF2CF4695F1DF08C08B
:10126000161617061806991FF1CF869571056105A8
:1012700008940895E894BB2766277727CB0197F950
:1012800008950BD0C4CFB5DF28F0BADF18F095234E
:1012900009F0A6CFABCF1124EECFCADFA0F3959F04
:1012A000D1F3950F50E0551F629FF001729FBB274D
:1012B000F00DB11D639FAA27F00DB11DAA1F649FF9
:1012C0006627B00DA11D661F829F2227B00DA11DAC
:1012D000621F739FB00DA11D621F839FA00D611D32
:1012E000221F749F3327A00D611D231F849F600D53
:1012F000211D822F762F6A2F11249F5750408AF08C
:10130000E1F088234AF0EE0FFF1FBB1F661F771F17
:10131000881F91505040A9F79E3F510570F060CF53
:10132000AACF5F3FECF3983EDCF3869577956795FF
:10133000B795F795E7959F5FC1F7FE2B880F911D35
:101340009695879597F9089597FB092E07260AD059
:1013500077FD04D049D006D000201AF4709561952D
:101360007F4F0895F6F7909581959F4F0895A1E2DC
:101370001A2EAA1BBB1BFD010DC0AA1FBB1FEE1F0F
:10138000FF1FA217B307E407F50720F0A21BB30B5A
:10139000E40BF50B661F771F881F991F1A9469F7D6
:1013A00060957095809590959B01AC01BD01CF0132
:1013B000089597FB092E05260ED057FD04D0D7DFE0
:1013C0000AD0001C38F450954095309521953F4F38
:1013D0004F4F5F4F0895F6F7909580957095619502
:1013E0007F4F8F4F9F4F0895AA1BBB1B51E107C032
:1013F000AA1FBB1FA617B70710F0A61BB70B881FA5
:10140000991F5A95A9F780959095BC01CD01089533
:10141000EE0FFF1F0590F491E02D0994F894FFCF93
:10142000696E697469616C697A696E67000A002E79
:0A14300000000100000000BA0300F4
:00000001FF
