:100000000C9435000C945D000C945D000C945D0024
:100010000C945D000C945D000C945D000C945D00EC
:100020000C945D000C945D000C945D000C945D00DC
:100030000C945D000C945D000C945D000C945D00CC
:100040000C94CC020C945D000C94C9000C945D00DF
:100050000C945D000C945D000C945D000C945D00AC
:100060000C945D000C945D00BE0111241FBECFEF07
:10007000D8E0DEBFCDBF11E0A0E0B1E0E0EDF8E0F8
:1000800002C005900D92AE30B107D9F711E0AEE095
:10009000B1E001C01D92A03BB107E1F710E0CAE654
:1000A000D0E004C02297FE010E946204C836D10746
:1000B000C9F70E94C2000C9466040C940000AF9231
:1000C000BF92CF92DF92EF92FF920F931F9382E93C
:1000D00091E00E946F01882309F442C082E991E017
:1000E0000E94830184379105D9F5809105010E9412
:1000F000760300D000D0AA2797FDA095BA2F28E854
:1001000033E140E050E0EDB7FEB721833283438313
:100110005483BC01CD0120E030E040E050E0EFEF3F
:10012000EE2EE3E0FE2E012D112DAA24BB24650145
:100130000E949403AB01BC010F900F900F900F90A1
:1001400082E991E00E94A50282E991E060E071E01D
:100150000E94F50182E991E063E071E00E94F501FF
:100160001F910F91FF90EF90DF90CF90BF90AF90D5
:10017000089582E991E040E855E260E070E00E9475
:10018000060108950E943C030E94B9000E945F008E
:10019000FDCF1F920F920FB60F9211242F933F9312
:1001A0004F935F936F937F938F939F93AF93BF937F
:1001B000EF93FF934091C600E0918E01F0918F0183
:1001C000CF01019660E870E00E94FC039C018091E1
:1001D0009001909191012817390739F0E25FFE4FA5
:1001E000408330938F0120938E01FF91EF91BF9157
:1001F000AF919F918F917F916F915F914F913F91BF
:100200002F910F900FBE0F901F901895AF92BF9235
:10021000CF92DF92EF92FF920F931F93CF93DF93D2
:100220006C017A018B01DC011496AD90BC9015979E
:10023000CB01BA0122E030E040E050E00E943104FE
:10024000205C3D4B404F5F4FCA01B901A8019701A7
:100250000E943104C901DA010197A109B109292FCE
:100260003A2F4B2F552747FD5A950196A11DB11DD9
:10027000E5012883E601EE81FF8181508083EA85D4
:10028000FB85208141E050E0CA010E8402C0880F46
:10029000991F0A94E2F7282B2083EA85FB852081A9
:1002A000CA010F8402C0880F991F0A94E2F7282B15
:1002B0002083EA85FB858081088802C0440F551F92
:1002C0000A94E2F7842B8083DF91CF911F910F91E5
:1002D000FF90EF90DF90CF90BF90AF900895DC013A
:1002E0001296ED91FC911397E058FF4F81919191F7
:1002F00080589F4F20813181821B930B60E870E012
:100300000E94FC030895CF93DF93DC011296ED91D8
:10031000FC911397EF01CE57DF4F48815981E05888
:10032000FF4F80819181E058F0408417950719F4C0
:100330002FEF3FEF0CC0E40FF51F2081CA0101969B
:1003400060E870E00E94FC039983888330E0C90173
:10035000DF91CF910895FC01A085B18521898C9111
:1003600090E0022E02C0959587950A94E2F780FFEF
:10037000F6CF0484F585E02D608308958CE091E04C
:1003800090939301809392018EE091E09093950178
:100390008093940185EC90E090939701809396016F
:1003A00084EC90E0909399018093980180EC90E028
:1003B00090939B0180939A0181EC90E090939D0132
:1003C00080939C0186EC90E090939F0180939E0126
:1003D00084E08093A00183E08093A10187E0809373
:1003E000A20185E08093A30108950F931F93CF93FB
:1003F000DF938C01EB0109C02196D801ED91FC91AE
:100400000190F081E02DC801099568816623A1F76C
:10041000DF91CF911F910F9108952F923F924F92AC
:100420005F926F927F928F929F92AF92BF92CF9284
:10043000DF92EF92FF920F931F93DF93CF93CDB78D
:10044000DEB7A0970FB6F894DEBF0FBECDBF1C017C
:100450006A017B01411551056105710549F4DC0113
:10046000ED91FC910190F081E02D60E3099554C07D
:10047000882499245401422E55246624772401E0CF
:1004800010E00C0F1D1F080D191DC701B601A301B7
:1004900092010E940F04F80160830894811C911C52
:1004A000A11CB11CC701B601A30192010E940F0457
:1004B000C901DA016C017D01C114D104E104F10428
:1004C000F1F681E0E82EF12CEC0EFD1EE80CF91C93
:1004D0003E010894611C711CD501C4010197A1095A
:1004E000B1096C01C818D90814C0F601EE0DFF1D42
:1004F00060816A3010F4605D01C0695CD101ED91EA
:10050000FC910190F081E02DC10109950894E1086A
:10051000F1086E147F0449F7A0960FB6F894DEBF79
:100520000FBECDBFCF91DF911F910F91FF90EF9044
:10053000DF90CF90BF90AF909F908F907F906F9003
:100540005F904F903F902F900895EF92FF920F93FE
:100550001F93CF93DF93EC017A018B0177FF0FC0DC
:10056000E881F9810190F081E02D6DE20995109507
:100570000095F094E094E11CF11C011D111DCE01C9
:10058000B801A7012AE00E940D02DF91CF911F91CF
:100590000F91FF90EF9008951F920F920FB60F9258
:1005A00011242F938F939F93AF93BF938091A401B6
:1005B0009091A501A091A601B091A7010196A11D5E
:1005C000B11D8093A4019093A501A093A601B093BF
:1005D000A7018091A8019091A901A091AA01B091D1
:1005E000AB018050904CAF4FBF4F8093A8019093C8
:1005F000A901A093AA01B093AB0127C08091A801E3
:100600009091A901A091AA01B091AB0180589E439D
:10061000A040B0408093A8019093A901A093AA01A3
:10062000B093AB018091AC019091AD01A091AE016E
:10063000B091AF010196A11DB11D8093AC019093C3
:10064000AD01A093AE01B093AF018091A80190914C
:10065000A901A091AA01B091AB0181589E43A0408D
:10066000B04060F6BF91AF919F918F912F910F9005
:100670000FBE0F901F901895789484B5826084BD4A
:1006800084B5816084BD85B5826085BD85B5816096
:1006900085BDEEE6F0E0808181608083E1E8F0E0F6
:1006A000808182608083808181608083E0E8F0E0E7
:1006B000808181608083E1EBF0E0808184608083D1
:1006C000E0EBF0E0808181608083EAE7F0E0808108
:1006D0008460808380818260808380818160808368
:1006E0008081806880831092C10008958770909106
:1006F00007019295990F990F907C982B90937C000D
:1007000080917A00806480937A0080917A0086FDDF
:10071000FCCF2091780040917900942F80E030E068
:10072000282B392BC90108952F923F924F925F9247
:100730006F927F928F929F92AF92BF92CF92DF92F1
:10074000EF92FF920F931F93DF93CF93CDB7DEB756
:100750003B014C0119012A016D897E898F89988D91
:100760006A197B098C099D09621A730A840A950A21
:10077000A40193010E94DD03E218F308040915099E
:10078000A80197010E9431042A0D3B1D4C1D5D1DDF
:10079000B901CA01CF91DF911F910F91FF90EF90A6
:1007A000DF90CF90BF90AF909F908F907F906F9091
:1007B0005F904F903F902F900895629FD001739F5C
:1007C000F001829FE00DF11D649FE00DF11D929FED
:1007D000F00D839FF00D749FF00D659FF00D99272C
:1007E000729FB00DE11DF91F639FB00DE11DF91F50
:1007F000BD01CF011124089597FB092E07260AD0C9
:1008000077FD04D049D006D000201AF47095619588
:100810007F4F0895F6F7909581959F4F0895A1E237
:100820001A2EAA1BBB1BFD010DC0AA1FBB1FEE1F6A
:10083000FF1FA217B307E407F50720F0A21BB30BB5
:10084000E40BF50B661F771F881F991F1A9469F731
:1008500060957095809590959B01AC01BD01CF018D
:10086000089597FB092E05260ED057FD04D0D7DF3B
:100870000AD0001C38F450954095309521953F4F93
:100880004F4F5F4F0895F6F790958095709561955D
:100890007F4F8F4F9F4F0895AA1BBB1B51E107C08D
:1008A000AA1FBB1FA617B70710F0A61BB70B881F00
:1008B000991F5A95A9F780959095BC01CD0108958F
:1008C000EE0FFF1F0590F491E02D0994F894FFCFEF
:0E08D0002020000A0002000100000000AB0121
:00000001FF
