:100000000C9462000C948A000C948A000C948A0070
:100010000C948A000C948A000C948A000C948A0038
:100020000C948A000C948A000C948A000C948A0028
:100030000C948A000C948A000C948A000C948A0018
:100040000C94FB020C948A000C9412010C948A000C
:100050000C948A000C948A000C948A000C948A00F8
:100060000C948A000C948A000000000024002700F1
:100070002A0000000000250028002B0000000000DE
:1000800023002600290004040404040404040202DA
:100090000202020203030303030301020408102007
:1000A0004080010204081020010204081020000012
:1000B0000007000201000003040600000000000029
:1000C0000000CB0111241FBECFEFD4E0DEBFCDBFB7
:1000D00011E0A0E0B1E0EAE5FAE002C005900D927F
:1000E000A233B107D9F711E0A2E3B1E001C01D923C
:1000F000A23EB107E1F710E0C4ECD0E004C02297C3
:10010000FE010E942705C23CD107C9F70E940B01DE
:100110000C942B050C940000CF93DF930E946B038B
:1001200060933401709335018093360190933701C9
:100130008091240161E00E947404C0E0D0E08091CD
:1001400026010E94DD039093330180933201809158
:1001500028016DE770E00E94FB03219687E2C03121
:10016000D80769F70E946B039B01AC01209338010B
:100170003093390140933A0150933B01809134010F
:1001800090913501A0913601B0913701281B390BB0
:100190004A0B5B0B20933C0130933D0140933E01A1
:1001A00050933F0184EC91E060E071E00E94020214
:1001B00040913C0150913D0160913E0170913F01A1
:1001C00084EC91E00E94D40284EC91E067E171E05C
:1001D0000E9431028091240160E00E9474046CE26C
:1001E00071E080E090E00E947903DF91CF91089563
:1001F0008091260160E00E9454048091240161E016
:100200000E94540484EC91E040E855E260E070E024
:100210000E944F0108950E94A3030E94F8000E94CB
:100220008C00FDCF1F920F920FB60F9211242F93C7
:100230003F934F935F936F937F938F939F93AF936E
:10024000BF93EF93FF934091C600E091C001F091FE
:10025000C101CF01019660E870E00E94C1049C01D9
:100260008091C2019091C3012817390739F0E05CF1
:10027000FE4F40833093C1012093C001FF91EF9165
:10028000BF91AF919F918F917F916F915F914F91AE
:100290003F912F910F900FBE0F901F901895AF9226
:1002A000BF92CF92DF92EF92FF920F931F93CF9363
:1002B000DF936C017A018B01DC011496AD90BC9048
:1002C0001597CB01BA0122E030E040E050E00E94F7
:1002D000F604205C3D4B404F5F4FCA01B901A801B5
:1002E00097010E94F604C901DA010197A109B10939
:1002F000292F3A2F4B2F552747FD5A950196A11DBF
:10030000B11DE5012883E601EE81FF8181508083E4
:10031000EA85FB85208141E050E0CA010E8402C0DD
:10032000880F991F0A94E2F7282B2083EA85FB8522
:100330002081CA010F8402C0880F991F0A94E2F736
:10034000282B2083EA85FB858081088802C0440F22
:10035000551F0A94E2F7842B8083DF91CF911F9180
:100360000F91FF90EF90DF90CF90BF90AF900895E6
:10037000FC01A085B18521898C9190E0022E02C0FC
:10038000959587950A94E2F780FFF6CF0484F5856A
:10039000E02D608308958FE291E09093C5018093F2
:1003A000C40180E491E09093C7018093C60185EC7D
:1003B00090E09093C9018093C80184EC90E0909301
:1003C000CB018093CA0180EC90E09093CD018093A3
:1003D000CC0181EC90E09093CF018093CE0186EC2C
:1003E00090E09093D1018093D00184E08093D2017A
:1003F00083E08093D30187E08093D40185E08093EC
:10040000D50108950F931F93CF93DF938C01EB01D8
:1004100009C02196D801ED91FC910190F081E02D69
:10042000C801099568816623A1F7DF91CF911F91DB
:100430000F9108950F931F938C01DC01ED91FC91B6
:100440000190F081E02D6DE00995D801ED91FC91CE
:100450000190F081E02DC8016AE009951F910F918C
:1004600008950F931F938C010E940202C8010E94FD
:100470001A021F910F9108952F923F924F925F920F
:100480006F927F928F929F92AF92BF92CF92DF92A4
:10049000EF92FF920F931F93DF93CF93CDB7DEB709
:1004A000A0970FB6F894DEBF0FBECDBF1C016A0146
:1004B0007B01411551056105710549F4DC01ED91A0
:1004C000FC910190F081E02D60E3099554C08824EF
:1004D00099245401422E55246624772401E010E02B
:1004E0000C0F1D1F080D191DC701B601A3019201B4
:1004F0000E94D404F80160830894811C911CA11C03
:10050000B11CC701B601A30192010E94D404C90124
:10051000DA016C017D01C114D104E104F104F1F6AA
:1005200081E0E82EF12CEC0EFD1EE80CF91C3E01DA
:100530000894611C711CD501C4010197A109B1097E
:100540006C01C818D90814C0F601EE0DFF1D6081BA
:100550006A3010F4605D01C0695CD101ED91FC91DD
:100560000190F081E02DC10109950894E108F1089E
:100570006E147F0449F7A0960FB6F894DEBF0FBE45
:10058000CDBFCF91DF911F910F91FF90EF90DF9042
:10059000CF90BF90AF909F908F907F906F905F9023
:1005A0004F903F902F900895EF92FF920F931F93DB
:1005B000CF93DF93EC017A018B0177FF0FC0E881C5
:1005C000F9810190F081E02D6DE20995109500957B
:1005D000F094E094E11CF11C011D111DCE01B80145
:1005E000A7012AE00E943C02DF91CF911F910F9159
:1005F000FF90EF9008951F920F920FB60F92112463
:100600002F938F939F93AF93BF938091D601909137
:10061000D701A091D801B091D9010196A11DB11DBA
:100620008093D6019093D701A093D801B093D901BC
:100630008091DA019091DB01A091DC01B091DD01A4
:100640008050904CAF4FBF4F8093DA019093DB0105
:10065000A093DC01B093DD0127C08091DA01909175
:10066000DB01A091DC01B091DD0180589E43A040E8
:10067000B0408093DA019093DB01A093DC01B0934A
:10068000DD018091DE019091DF01A091E001B09148
:10069000E1010196A11DB11D8093DE019093DF0160
:1006A000A093E001B093E1018091DA019091DB0128
:1006B000A091DC01B091DD0181589E43A040B04083
:1006C00060F6BF91AF919F918F912F910F900FBEC8
:1006D0000F901F9018958FB7F8942091DE013091FC
:1006E000DF014091E0015091E1018FBFB901CA01E2
:1006F0000895EF92FF920F931F937B018C018FB7A8
:10070000F8944091DE015091DF016091E001709119
:10071000E1018FBF2FB7F8948091DE019091DF0146
:10072000A091E001B091E1012FBF841B950BA60BB6
:10073000B70BE816F9060A071B0760F71F910F9120
:10074000FF90EF900895789484B5826084BD84B55D
:10075000816084BD85B5826085BD85B5816085BDBC
:10076000EEE6F0E0808181608083E1E8F0E0808166
:1007700082608083808181608083E0E8F0E0808116
:1007800081608083E1EBF0E0808184608083E0EB36
:10079000F0E0808181608083EAE7F0E0808184601E
:1007A000808380818260808380818160808380817A
:1007B000806880831092C1000895877090912A010B
:1007C0009295990F990F907C982B90937C00809133
:1007D0007A00806480937A0080917A0086FDFCCF55
:1007E0002091780040917900942F80E030E0282B10
:1007F000392BC90108951F93CF93DF93182FEB0175
:1008000061E00E945404E12FF0E0E255FF4F849133
:10081000833051F480918000806880938000D09371
:100820008900C09388003CC0843051F480918000DE
:10083000806280938000D0938B00C0938A0030C088
:10084000813039F4209729F184B5806884BDC7BD13
:1008500027C0823039F42097E1F084B5806284BDEE
:10086000C8BD1EC0863041F48091B000806880937E
:10087000B000C093B30014C0873041F48091B00041
:1008800080628093B000C093B4000AC0C038D10524
:100890001CF4812F60E002C0812F61E00E9474048B
:1008A000DF91CF911F910895282F30E0C90186561E
:1008B0009F4FFC0194912A573F4FF901849188235F
:1008C00091F0E82FF0E0EE0FFF1FE859FF4FA591E0
:1008D000B491662329F48C91909589238C93089583
:1008E0008C91892B8C930895482F50E0CA01825532
:1008F0009F4FFC012491CA0186569F4FFC019491A1
:100900004A575F4FFA0134913323D1F1222331F159
:10091000233021F4809180008F7705C0243031F49A
:10092000809180008F7D8093800018C0213019F461
:1009300084B58F7704C0223021F484B58F7D84BDC7
:100940000DC0263021F48091B0008F7705C027308C
:1009500029F48091B0008F7D8093B000E32FF0E008
:10096000EE0FFF1FEE58FF4FA591B491662329F4B7
:100970008C91909589238C9308958C91892B8C93DD
:10098000089597FB092E07260AD077FD04D049D099
:1009900006D000201AF4709561957F4F0895F6F700
:1009A000909581959F4F0895A1E21A2EAA1BBB1B1B
:1009B000FD010DC0AA1FBB1FEE1FFF1FA217B3072B
:1009C000E407F50720F0A21BB30BE40BF50B661F41
:1009D000771F881F991F1A9469F760957095809505
:1009E00090959B01AC01BD01CF01089597FB092EA5
:1009F00005260ED057FD04D0D7DF0AD0001C38F4EE
:100A000050954095309521953F4F4F4F5F4F08953A
:100A1000F6F790958095709561957F4F8F4F9F4F1A
:100A20000895AA1BBB1B51E107C0AA1FBB1FA61735
:100A3000B70710F0A61BB70B881F991F5A95A9F787
:100A400080959095BC01CD010895EE0FFF1F059094
:0A0A5000F491E02D0994F894FFCF13
:100A5A0031303030302073616D706C65732072658F
:100A6A00616420696E20006D696C6C697365636FDF
:100A7A006E6473000D0002000B000100000000B854
:020A8A00010069
:040000050080013442
:00000001FF
