:100000000C9462000C94F4040C9421050C948A0066
:100010000C948A000C948A000C948A000C948A0038
:100020000C948A000C948A000C948A000C948A0028
:100030000C948A000C948A000C948A000C948A0018
:100040000C944E050C948A000C9410020C948A00B7
:100050000C948A000C948A000C948A000C948A00F8
:100060000C948A000C948A000000000024002700F1
:100070002A0000000000250028002B0000000000DE
:1000800023002600290004040404040404040202DA
:100090000202020203030303030301020408102007
:1000A0004080010204081020010204081020000012
:1000B0000007000201000003040600000000000029
:1000C0000000050311241FBECFEFD8E0DEBFCDBF77
:1000D00011E0A0E0B1E0ECE8F3E102C005900D9280
:1000E000AC30B107D9F711E0ACE0B1E001C01D922E
:1000F000A43CB107E1F710E0C4ECD0E004C02297C3
:10010000FE010E94C009C23CD107C9F70E949D01AF
:100110000C94C4090C9400004F925F926F927F92EE
:100120009F92AF92BF92CF92DF92EF92FF920F9386
:100130001F9382EA91E00E94B602882309F4C4C0AA
:1001400082EA91E00E94CA0287359105C1F08835A4
:1001500091054CF48634910509F44CC08435910521
:1001600009F0ACC077C08437910509F473C08737B4
:10017000910529F08636910509F0A0C03BC0B3E097
:100180009B2E412CA4E05A2E612C712C892D0E94AB
:10019000500600D000D0AA2797FDA095BA2FEDB742
:1001A000FEB74182528263827482BC01CD0120E09D
:1001B00030E040E050E0E12CF4E0FF2E012D112D65
:1001C000AA24BB2465010E94DB06AB01BC010F9091
:1001D0000F900F900F9082EA91E00E940F0482EA44
:1001E00091E060E071E00E9444039394F6E09F1672
:1001F00069F62AC060911201709113018091140177
:10020000909115010E9426089B01AC0160E070E00E
:1002100080E89FE30E948D0720EC31EE44E65CE429
:100220000E94D8089B01AC01CB01DA0180930C013C
:1002300090930D01A0930E01B0930F0182EA91E01B
:10024000A901BD010E94CD0482EA91E06AE00E940A
:100250003C033AC080E00E94500600D000D0AA279C
:1002600097FDA095BA2F28E833E140E050E0EDB7C4
:10027000FEB72183328343835483BC01CD0120E048
:1002800030E040E050E0E12CE4E0FE2E012D112DA5
:10029000AA24BB2465010E94DB06AB01BC010F90C0
:1002A0000F900F900F9082EA91E00E940F0482EA73
:1002B00091E060E071E00E944403C6CF82EA91E0E1
:1002C00062E274E50E9436046AE070E080E090E04B
:1002D0000E94E9051F910F91FF90EF90DF90CF9062
:1002E000BF90AF909F907F906F905F904F900895D8
:1002F00082EA91E040E855E260E070E00E944D0241
:100300000E94BE0560931A0170931B0180931C012B
:1003100090931D0182E060E00E946E0680E064EA36
:1003200071E042E050E00E94D1048DE061E00E9463
:100330006E0681E00E944D0608950E9413060E94F9
:1003400078010E948C00FDCFF8940E94BE05609356
:100350001601709317018093180190931901209151
:1003600016013091170140911801509119018091A7
:100370001A0190911B01A0911C01B0911D018054A4
:100380009943A24DBF4F82179307A407B50708F002
:1003900045C08091160190911701A0911801B0916C
:1003A000190120911A0130911B0140911C015091BB
:1003B0001D01821B930BA40BB50B8093120190932C
:1003C0001301A0931401B09315018091160190912F
:1003D0001701A0911801B091190180931A0190930F
:1003E0001B01A0931C01B0931D01809110019091FD
:1003F0001101019749F48DE061E00E948E06109290
:100400001101109210010AC08DE060E00E948E067A
:1004100081E090E090931101809310017894089509
:100420001F920F920FB60F9211242F933F934F9369
:100430005F936F937F938F939F93AF93BF93EF934C
:10044000FF934091C600E0919E01F0919F01CF0182
:10045000019660E870E00E945A099C018091A00119
:100460009091A1012817390739F0E25EFE4F4083D1
:1004700030939F0120939E01FF91EF91BF91AF9127
:100480009F918F917F916F915F914F913F912F91AC
:100490000F900FBE0F901F901895AF92BF92CF9202
:1004A000DF92EF92FF920F931F93CF93DF936C0134
:1004B0007A018B01DC011496AD90BC901597CB01AD
:1004C000BA0122E030E040E050E00E948F09205C59
:1004D0003D4B404F5F4FCA01B901A80197010E94EF
:1004E0008F09C901DA010197A109B109292F3A2F12
:1004F0004B2F552747FD5A950196A11DB11DE501CA
:100500002883E601EE81FF8181508083EA85FB85A7
:10051000208141E050E0CA010E8402C0880F991F7B
:100520000A94E2F7282B2083EA85FB852081CA0103
:100530000F8402C0880F991F0A94E2F7282B2083AA
:10054000EA85FB858081088802C0440F551F0A9404
:10055000E2F7842B8083DF91CF911F910F91FF9061
:10056000EF90DF90CF90BF90AF900895DC0112968E
:10057000ED91FC911397E058FF4F81919191805834
:100580009F4F20813181821B930B60E870E00E94B5
:100590005A090895CF93DF93DC011296ED91FC91F7
:1005A0001397EF01CE57DF4F48815981E058FF4F35
:1005B00080819181E058F0408417950719F42FEF5E
:1005C0003FEF0CC0E40FF51F2081CA01019660E8DF
:1005D00070E00E945A099983888330E0C901DF9155
:1005E000CF910895FC01A085B18521898C9190E07F
:1005F000022E02C0959587950A94E2F780FFF6CF08
:100600000484F585E02D608308958AE091E090935D
:10061000A3018093A2018EE191E09093A5018093C4
:10062000A40185EC90E09093A7018093A60184EC4F
:1006300090E09093A9018093A80180EC90E09093C2
:10064000AB018093AA0181EC90E09093AD0180937F
:10065000AC0186EC90E09093AF018093AE0184E012
:100660008093B00183E08093B10187E08093B20171
:1006700085E08093B3010895DC01ED91FC91019038
:10068000F081E02D099508950F931F93CF93DF9389
:100690008C01EB0109C02196D801ED91FC910190EC
:1006A000F081E02DC801099568816623A1F7DF91EB
:1006B000CF911F910F9108950F931F938C01DC012F
:1006C000ED91FC910190F081E02D6DE00995D8014C
:1006D000ED91FC910190F081E02DC8016AE009954F
:1006E0001F910F9108952F923F924F925F926F92B8
:1006F0007F928F929F92AF92BF92CF92DF92EF92B2
:10070000FF920F931F93DF93CF93CDB7DEB7A097E0
:100710000FB6F894DEBF0FBECDBF1C016A017B018E
:10072000411551056105710549F4DC01ED91FC911C
:100730000190F081E02D60E3099554C0882499244C
:100740005401422E55246624772401E010E00C0F5A
:100750001D1F080D191DC701B601A30192010E94BA
:100760006D09F80160830894811C911CA11CB11CC7
:10077000C701B601A30192010E946D09C901DA0106
:100780006C017D01C114D104E104F104F1F681E0B2
:10079000E82EF12CEC0EFD1EE80CF91C3E0108942D
:1007A000611C711CD501C4010197A109B1096C013B
:1007B000C818D90814C0F601EE0DFF1D60816A301B
:1007C00010F4605D01C0695CD101ED91FC91019074
:1007D000F081E02DC10109950894E108F1086E143B
:1007E0007F0449F7A0960FB6F894DEBF0FBECDBFC9
:1007F000CF91DF911F910F91FF90EF90DF90CF90FD
:10080000BF90AF909F908F907F906F905F904F9030
:100810003F902F9008952AE00E9473030895EF926D
:10082000FF920F931F93CF93DF93EC017A018B011B
:1008300077FF0FC0E881F9810190F081E02D6DE232
:10084000099510950095F094E094E11CF11C011DB0
:10085000111DCE01B801A7012AE00E947303DF91A8
:10086000CF911F910F91FF90EF9008950F931F93D9
:100870008C01AB01662757FD6095762F0E940F040F
:10088000C8010E945C031F910F9108959F92AF923F
:10089000BF92CF92DF92EF92FF920F931F93CF936D
:1008A000DF93EC017A018B01922ECB01BA0120E09B
:1008B00030E040E050E00E948907882364F4E8813A
:1008C000F9810190F081E02DCE016DE2099517FBD1
:1008D000109517F9109520E030E040E05FE3AA247E
:1008E0000BC0CA01B90120E030E040E251E40E94AF
:1008F0008D079B01AC01A394A91498F3C801B7011B
:100900000E9425075B016C010E94FA077B018C01A4
:10091000CE01B801A7010E940B04992029F0CE0155
:1009200063E071E00E944403C801B7010E942608F9
:100930009B01AC01C601B5010E94240720C020E044
:1009400030E040E251E40E94D8087B018C010E9413
:10095000F5075B016C01CC24B7FCC094DC2CCE0104
:10096000B601A5010E940F04C601B5010E94280826
:100970009B01AC01C801B7010E9424079A949920F9
:10098000F1F6DF91CF911F910F91FF90EF90DF90E3
:10099000CF90BF90AF909F90089522E00E944604B0
:1009A0000895823000F5E82FF0E0EE0FFF1FEC54C1
:1009B000FE4F71836083882319F08130A1F408C051
:1009C000809169008C7F842B80936900E89A089558
:1009D00080916900440F551F440F551F837F842B5E
:1009E00080936900E99A08951F920F920FB60F92B3
:1009F00011242F933F934F935F936F937F938F9324
:100A00009F93AF93BF93EF93FF938091B401909125
:100A1000B501892B29F0E091B401F091B501099558
:100A2000FF91EF91BF91AF919F918F917F916F91C6
:100A30005F914F913F912F910F900FBE0F901F909C
:100A400018951F920F920FB60F9211242F933F9378
:100A50004F935F936F937F938F939F93AF93BF93C6
:100A6000EF93FF938091B6019091B701892B29F004
:100A7000E091B601F091B7010995FF91EF91BF9117
:100A8000AF919F918F917F916F915F914F913F9126
:100A90002F910F900FBE0F901F9018951F920F92DD
:100AA0000FB60F9211242F938F939F93AF93BF9301
:100AB0008091B8019091B901A091BA01B091BB01A8
:100AC0000196A11DB11D8093B8019093B901A09327
:100AD000BA01B093BB018091BC019091BD01A0917E
:100AE000BE01B091BF018050904CAF4FBF4F80937B
:100AF000BC019093BD01A093BE01B093BF0127C07C
:100B00008091BC019091BD01A091BE01B091BF0147
:100B100080589E43A040B0408093BC019093BD019B
:100B2000A093BE01B093BF018091C0019091C1011B
:100B3000A091C201B091C3010196A11DB11D809386
:100B4000C0019093C101A093C201B093C3018091F1
:100B5000BC019091BD01A091BE01B091BF0181582F
:100B60009E43A040B04060F6BF91AF919F918F919E
:100B70002F910F900FBE0F901F9018956FB7F8949C
:100B800086B590E0A0E0B0E0A89B08C00097A10562
:100B9000B10521F480E091E0A0E0B0E02091B8013F
:100BA0003091B9014091BA015091BB016FBF542FF0
:100BB000432F322F2227280F391F4A1F5B1F82E045
:100BC000220F331F441F551F8A95D1F7B901CA015F
:100BD0000895EF92FF920F931F937B018C018FB7C3
:100BE000F8944091C0015091C1016091C20170918F
:100BF000C3018FBF2FB7F8948091C0019091C101BC
:100C0000A091C201B091C3012FBF841B950BA60B0D
:100C1000B70BE816F9060A071B0760F71F910F913B
:100C2000FF90EF900895789484B5826084BD84B578
:100C3000816084BD85B5826085BD85B5816085BDD7
:100C4000EEE6F0E0808181608083E1E8F0E0808181
:100C500082608083808181608083E0E8F0E0808131
:100C600081608083E1EBF0E0808184608083E0EB51
:100C7000F0E0808181608083EAE7F0E08081846039
:100C80008083808182608083808181608083808195
:100C9000806880831092C1000895809305010895B3
:100CA0008770909105019295990F990F907C982BE0
:100CB00090937C0080917A00806480937A00809188
:100CC0007A0086FDFCCF2091780040917900942F26
:100CD00080E030E0282B392BC9010895282F30E01F
:100CE000C90186569F4FFC0194912A573F4FF90145
:100CF0008491882391F0E82FF0E0EE0FFF1FE85970
:100D0000FF4FA591B491662329F48C919095892386
:100D10008C9308958C91892B8C930895482F50E0E3
:100D2000CA0182559F4FFC012491CA0186569F4FEC
:100D3000FC0194914A575F4FFA0134913323D1F16A
:100D4000222331F1233021F4809180008F7705C078
:100D5000243031F4809180008F7D8093800018C012
:100D6000213019F484B58F7704C0223021F484B582
:100D70008F7D84BD0DC0263021F48091B0008F7727
:100D800005C0273029F48091B0008F7D8093B0009A
:100D9000E32FF0E0EE0FFF1FEE58FF4FA591B49147
:100DA000662329F48C91909589238C9308958C91D6
:100DB000892B8C9308952F923F924F925F926F925E
:100DC0007F928F929F92AF92BF92CF92DF92EF92DB
:100DD000FF920F931F93DF93CF93CDB7DEB73B0105
:100DE0004C0119012A016D897E898F89988D6A19B4
:100DF0007B098C099D09621A730A840A950AA40169
:100E000093010E943B09E218F30804091509A8019F
:100E100097010E948F092A0D3B1D4C1D5D1DB901D4
:100E2000CA01CF91DF911F910F91FF90EF90DF905A
:100E3000CF90BF90AF909F908F907F906F905F907A
:100E40004F903F902F9008955058BB27AA270ED05F
:100E500075C166D130F06BD120F031F49F3F11F4B1
:100E60001EF45BC10EF4E095E7FB51C1E92F77D189
:100E700080F3BA17620773078407950718F071F4B7
:100E80009EF58FC10EF4E0950B2EBA2FA02D0B010D
:100E9000B90190010C01CA01A0011124FF27591BBF
:100EA00099F0593F50F4503E68F11A16F040A22FC5
:100EB000232F342F4427585FF3CF46953795279536
:100EC000A795F0405395C9F77EF41F16BA0B620B35
:100ED000730B840BBAF09150A1F0FF0FBB1F661F7C
:100EE000771F881FC2F70EC0BA0F621F731F841FBF
:100EF00048F4879577956795B795F7959E3F08F0E5
:100F0000B3CF9395880F08F09927EE0F97958795A3
:100F10000895D9D008F481E008950CD00FC107D10D
:100F200040F0FED030F021F45F3F19F0F0C05111D5
:100F300039C1F3C014D198F39923C9F35523B1F300
:100F4000951B550BBB27AA2762177307840738F038
:100F50009F5F5F4F220F331F441FAA1FA9F333D097
:100F60000E2E3AF0E0E830D091505040E695001C4B
:100F7000CAF729D0FE2F27D0660F771F881FBB1F07
:100F8000261737074807AB07B0E809F0BB0B802DE1
:100F9000BF01FF2793585F4F2AF09E3F510568F02D
:100FA000B6C000C15F3FECF3983EDCF386957795C1
:100FB0006795B795F7959F5FC9F7880F911D96952F
:100FC000879597F90895E1E0660F771F881FBB1F8B
:100FD000621773078407BA0720F0621B730B840B38
:100FE000BA0BEE1F88F7E095089504D06894B1110C
:100FF000D9C00895BCD088F09F5790F0B92F992799
:10100000B751A0F0D1F0660F771F881F991F1AF013
:10101000BA95C9F712C0B13081F0C3D0B1E00895DC
:10102000C0C0672F782F8827B85F39F0B93FCCF35D
:10103000869577956795B395D9F73EF49095809509
:10104000709561957F4F8F4F9F4F0895E89409C029
:1010500097FB3EF490958095709561957F4F8F4FEB
:101060009F4F9923A9F0F92F96E9BB279395F69501
:10107000879577956795B795F111F8CFFAF4BB0F7F
:1010800011F460FF1BC06F5F7F4F8F4F9F4F16C0E3
:10109000882311F096E911C0772321F09EE8872F6D
:1010A000762F05C0662371F096E8862F70E060E029
:1010B0002AF09A95660F771F881FDAF7880F9695A2
:1010C000879597F90895990F0008550FAA0BE0E846
:1010D000FEEF16161706E807F907C0F012161306FA
:1010E000E407F50798F0621B730B840B950B39F43A
:1010F0000A2661F0232B242B252B21F408950A26A0
:1011000009F4A140A6958FEF811D811D089597F9DF
:101110009F6780E870E060E008959FEF80EC08959D
:1011200000240A94161617061806090608950024C6
:101130000A9412161306140605060895092E039440
:10114000000C11F4882352F0BB0F40F4BF2B11F4B4
:1011500060FF04C06F5F7F4F8F4F9F4F089557FD13
:101160009058440F551F59F05F3F71F04795880F15
:1011700097FB991F61F09F3F79F0879508951216AC
:1011800013061406551FF2CF4695F1DF08C0161658
:1011900017061806991FF1CF869571056105089409
:1011A0000895E894BB2766277727CB0197F9089520
:1011B0000BD0C4CFB5DF28F0BADF18F0952309F0C3
:1011C000A6CFABCF1124EECFCADFA0F3959FD1F30A
:1011D000950F50E0551F629FF001729FBB27F00DE5
:1011E000B11D639FAA27F00DB11DAA1F649F66273A
:1011F000B00DA11D661F829F2227B00DA11D621F89
:10120000739FB00DA11D621F839FA00D611D221F42
:10121000749F3327A00D611D231F849F600D211D26
:10122000822F762F6A2F11249F5750408AF0E1F0C9
:1012300088234AF0EE0FFF1FBB1F661F771F881F12
:1012400091505040A9F79E3F510570F060CFAACF52
:101250005F3FECF3983EDCF3869577956795B795FD
:10126000F795E7959F5FC1F7FE2B880F911D969527
:10127000879597F90895629FD001739FF001829F2F
:10128000E00DF11D649FE00DF11D929FF00D839F15
:10129000F00D749FF00D659FF00D9927729FB00DB2
:1012A000E11DF91F639FB00DE11DF91FBD01CF01C5
:1012B0001124089597FB092E07260AD077FD04D044
:1012C00049D006D000201AF4709561957F4F08959B
:1012D000F6F7909581959F4F0895A1E21A2EAA1BCB
:1012E000BB1BFD010DC0AA1FBB1FEE1FFF1FA217D6
:1012F000B307E407F50720F0A21BB30BE40BF50BD3
:10130000661F771F881F991F1A9469F7609570955B
:10131000809590959B01AC01BD01CF01089597FB8D
:10132000092E05260ED057FD04D0D7DF0AD0001CA9
:1013300038F450954095309521953F4F4F4F5F4F72
:101340000895F6F790958095709561957F4F8F4F32
:101350009F4F0895AA1BBB1B51E107C0AA1FBB1FCB
:10136000A617B70710F0A61BB70B881F991F5A9531
:10137000A9F780959095BC01CD010895EE0FFF1F50
:0C1380000590F491E02D0994F894FFCF43
:0C138C002020002E000100000000F202F2
:00000001FF
